{
	"TechnoLime_Store.sol": {
		"Shop": {
			"abi": [
				{
					"inputs": [],
					"stateMutability": "nonpayable",
					"type": "constructor"
				},
				{
					"inputs": [
						{
							"internalType": "uint256",
							"name": "_id",
							"type": "uint256"
						},
						{
							"internalType": "uint256",
							"name": "_quiantity",
							"type": "uint256"
						}
					],
					"name": "addItem",
					"outputs": [],
					"stateMutability": "nonpayable",
					"type": "function"
				},
				{
					"inputs": [
						{
							"internalType": "uint256",
							"name": "_id",
							"type": "uint256"
						}
					],
					"name": "buyItem",
					"outputs": [],
					"stateMutability": "nonpayable",
					"type": "function"
				},
				{
					"inputs": [
						{
							"internalType": "address",
							"name": "",
							"type": "address"
						},
						{
							"internalType": "uint256",
							"name": "",
							"type": "uint256"
						}
					],
					"name": "clientPurchases",
					"outputs": [
						{
							"internalType": "uint256",
							"name": "quantity",
							"type": "uint256"
						},
						{
							"internalType": "uint256",
							"name": "blocktime",
							"type": "uint256"
						}
					],
					"stateMutability": "view",
					"type": "function"
				},
				{
					"inputs": [
						{
							"internalType": "uint256",
							"name": "",
							"type": "uint256"
						}
					],
					"name": "clients",
					"outputs": [
						{
							"internalType": "address",
							"name": "",
							"type": "address"
						}
					],
					"stateMutability": "view",
					"type": "function"
				},
				{
					"inputs": [
						{
							"internalType": "uint256",
							"name": "",
							"type": "uint256"
						}
					],
					"name": "items",
					"outputs": [
						{
							"internalType": "uint256",
							"name": "",
							"type": "uint256"
						}
					],
					"stateMutability": "view",
					"type": "function"
				},
				{
					"inputs": [
						{
							"internalType": "address",
							"name": "_client",
							"type": "address"
						},
						{
							"internalType": "uint256",
							"name": "_id",
							"type": "uint256"
						}
					],
					"name": "listClientItems",
					"outputs": [
						{
							"internalType": "uint256",
							"name": "",
							"type": "uint256"
						}
					],
					"stateMutability": "view",
					"type": "function"
				},
				{
					"inputs": [],
					"name": "listClients",
					"outputs": [
						{
							"internalType": "address[]",
							"name": "",
							"type": "address[]"
						}
					],
					"stateMutability": "view",
					"type": "function"
				},
				{
					"inputs": [
						{
							"internalType": "uint256",
							"name": "_id",
							"type": "uint256"
						}
					],
					"name": "listItems",
					"outputs": [
						{
							"internalType": "uint256",
							"name": "",
							"type": "uint256"
						}
					],
					"stateMutability": "view",
					"type": "function"
				},
				{
					"inputs": [
						{
							"internalType": "uint256",
							"name": "_id",
							"type": "uint256"
						}
					],
					"name": "returnItem",
					"outputs": [],
					"stateMutability": "nonpayable",
					"type": "function"
				}
			],
			"devdoc": {
				"kind": "dev",
				"methods": {},
				"version": 1
			},
			"evm": {
				"assembly": "    /* \"TechnoLime_Store.sol\":67:1748  contract Shop {... */\n  mstore(0x40, 0x80)\n    /* \"TechnoLime_Store.sol\":350:351  0 */\n  0x00\n    /* \"TechnoLime_Store.sol\":330:351  uint totalClients = 0 */\n  0x04\n  sstore\n    /* \"TechnoLime_Store.sol\":357:399  constructor() {... */\n  callvalue\n  dup1\n  iszero\n  tag_1\n  jumpi\n  0x00\n  dup1\n  revert\ntag_1:\n  pop\n    /* \"TechnoLime_Store.sol\":384:394  msg.sender */\n  caller\n    /* \"TechnoLime_Store.sol\":376:381  owner */\n  0x00\n  dup1\n    /* \"TechnoLime_Store.sol\":376:394  owner = msg.sender */\n  0x0100\n  exp\n  dup2\n  sload\n  dup2\n  0xffffffffffffffffffffffffffffffffffffffff\n  mul\n  not\n  and\n  swap1\n  dup4\n  0xffffffffffffffffffffffffffffffffffffffff\n  and\n  mul\n  or\n  swap1\n  sstore\n  pop\n    /* \"TechnoLime_Store.sol\":67:1748  contract Shop {... */\n  dataSize(sub_0)\n  dup1\n  dataOffset(sub_0)\n  0x00\n  codecopy\n  0x00\n  return\nstop\n\nsub_0: assembly {\n        /* \"TechnoLime_Store.sol\":67:1748  contract Shop {... */\n      mstore(0x40, 0x80)\n      callvalue\n      dup1\n      iszero\n      tag_1\n      jumpi\n      0x00\n      dup1\n      revert\n    tag_1:\n      pop\n      jumpi(tag_2, lt(calldatasize, 0x04))\n      shr(0xe0, calldataload(0x00))\n      dup1\n      0xa4ddcd3f\n      gt\n      tag_12\n      jumpi\n      dup1\n      0xa4ddcd3f\n      eq\n      tag_7\n      jumpi\n      dup1\n      0xbfb231d2\n      eq\n      tag_8\n      jumpi\n      dup1\n      0xe20ee269\n      eq\n      tag_9\n      jumpi\n      dup1\n      0xe7fb74c7\n      eq\n      tag_10\n      jumpi\n      dup1\n      0xf88af21d\n      eq\n      tag_11\n      jumpi\n      jump(tag_2)\n    tag_12:\n      dup1\n      0x223ed1dd\n      eq\n      tag_3\n      jumpi\n      dup1\n      0x2ad2ba7c\n      eq\n      tag_4\n      jumpi\n      dup1\n      0x3e909fc5\n      eq\n      tag_5\n      jumpi\n      dup1\n      0xa2125232\n      eq\n      tag_6\n      jumpi\n    tag_2:\n      0x00\n      dup1\n      revert\n        /* \"TechnoLime_Store.sol\":1048:1361  function returnItem(uint _id) public {... */\n    tag_3:\n      tag_13\n      0x04\n      dup1\n      calldatasize\n      sub\n      dup2\n      add\n      swap1\n      tag_14\n      swap2\n      swap1\n      tag_15\n      jump\t// in\n    tag_14:\n      tag_16\n      jump\t// in\n    tag_13:\n      stop\n        /* \"TechnoLime_Store.sol\":215:283  mapping(address => mapping(uint => SoldItem)) public clientPurchases */\n    tag_4:\n      tag_17\n      0x04\n      dup1\n      calldatasize\n      sub\n      dup2\n      add\n      swap1\n      tag_18\n      swap2\n      swap1\n      tag_19\n      jump\t// in\n    tag_18:\n      tag_20\n      jump\t// in\n    tag_17:\n      mload(0x40)\n      tag_21\n      swap3\n      swap2\n      swap1\n      tag_22\n      jump\t// in\n    tag_21:\n      mload(0x40)\n      dup1\n      swap2\n      sub\n      swap1\n      return\n        /* \"TechnoLime_Store.sol\":540:621  function listItems(uint _id) public view returns(uint){... */\n    tag_5:\n      tag_23\n      0x04\n      dup1\n      calldatasize\n      sub\n      dup2\n      add\n      swap1\n      tag_24\n      swap2\n      swap1\n      tag_15\n      jump\t// in\n    tag_24:\n      tag_25\n      jump\t// in\n    tag_23:\n      mload(0x40)\n      tag_26\n      swap2\n      swap1\n      tag_27\n      jump\t// in\n    tag_26:\n      mload(0x40)\n      dup1\n      swap2\n      sub\n      swap1\n      return\n        /* \"TechnoLime_Store.sol\":404:535  function addItem(uint _id, uint _quiantity) public {... */\n    tag_6:\n      tag_28\n      0x04\n      dup1\n      calldatasize\n      sub\n      dup2\n      add\n      swap1\n      tag_29\n      swap2\n      swap1\n      tag_30\n      jump\t// in\n    tag_29:\n      tag_31\n      jump\t// in\n    tag_28:\n      stop\n        /* \"TechnoLime_Store.sol\":1367:1499  function listClientItems(address _client, uint _id) public view returns(uint){... */\n    tag_7:\n      tag_32\n      0x04\n      dup1\n      calldatasize\n      sub\n      dup2\n      add\n      swap1\n      tag_33\n      swap2\n      swap1\n      tag_19\n      jump\t// in\n    tag_33:\n      tag_34\n      jump\t// in\n    tag_32:\n      mload(0x40)\n      tag_35\n      swap2\n      swap1\n      tag_27\n      jump\t// in\n    tag_35:\n      mload(0x40)\n      dup1\n      swap2\n      sub\n      swap1\n      return\n        /* \"TechnoLime_Store.sol\":177:211  mapping(uint => uint) public items */\n    tag_8:\n      tag_36\n      0x04\n      dup1\n      calldatasize\n      sub\n      dup2\n      add\n      swap1\n      tag_37\n      swap2\n      swap1\n      tag_15\n      jump\t// in\n    tag_37:\n      tag_38\n      jump\t// in\n    tag_36:\n      mload(0x40)\n      tag_39\n      swap2\n      swap1\n      tag_27\n      jump\t// in\n    tag_39:\n      mload(0x40)\n      dup1\n      swap2\n      sub\n      swap1\n      return\n        /* \"TechnoLime_Store.sol\":1504:1745  function listClients() public view returns(address[] memory) {... */\n    tag_9:\n      tag_40\n      tag_41\n      jump\t// in\n    tag_40:\n      mload(0x40)\n      tag_42\n      swap2\n      swap1\n      tag_43\n      jump\t// in\n    tag_42:\n      mload(0x40)\n      dup1\n      swap2\n      sub\n      swap1\n      return\n        /* \"TechnoLime_Store.sol\":626:1043  function buyItem(uint _id) public {... */\n    tag_10:\n      tag_44\n      0x04\n      dup1\n      calldatasize\n      sub\n      dup2\n      add\n      swap1\n      tag_45\n      swap2\n      swap1\n      tag_15\n      jump\t// in\n    tag_45:\n      tag_46\n      jump\t// in\n    tag_44:\n      stop\n        /* \"TechnoLime_Store.sol\":287:326  mapping(uint => address) public clients */\n    tag_11:\n      tag_47\n      0x04\n      dup1\n      calldatasize\n      sub\n      dup2\n      add\n      swap1\n      tag_48\n      swap2\n      swap1\n      tag_15\n      jump\t// in\n    tag_48:\n      tag_49\n      jump\t// in\n    tag_47:\n      mload(0x40)\n      tag_50\n      swap2\n      swap1\n      tag_51\n      jump\t// in\n    tag_50:\n      mload(0x40)\n      dup1\n      swap2\n      sub\n      swap1\n      return\n        /* \"TechnoLime_Store.sol\":1048:1361  function returnItem(uint _id) public {... */\n    tag_16:\n        /* \"TechnoLime_Store.sol\":1112:1117  owner */\n      0x00\n      dup1\n      sload\n      swap1\n      0x0100\n      exp\n      swap1\n      div\n      0xffffffffffffffffffffffffffffffffffffffff\n      and\n        /* \"TechnoLime_Store.sol\":1098:1117  msg.sender != owner */\n      0xffffffffffffffffffffffffffffffffffffffff\n      and\n        /* \"TechnoLime_Store.sol\":1098:1108  msg.sender */\n      caller\n        /* \"TechnoLime_Store.sol\":1098:1117  msg.sender != owner */\n      0xffffffffffffffffffffffffffffffffffffffff\n      and\n      sub\n        /* \"TechnoLime_Store.sol\":1090:1132  require(msg.sender != owner, \"Not client\") */\n      tag_53\n      jumpi\n      mload(0x40)\n      0x08c379a000000000000000000000000000000000000000000000000000000000\n      dup2\n      mstore\n      0x04\n      add\n      tag_54\n      swap1\n      tag_55\n      jump\t// in\n    tag_54:\n      mload(0x40)\n      dup1\n      swap2\n      sub\n      swap1\n      revert\n    tag_53:\n        /* \"TechnoLime_Store.sol\":1189:1190  0 */\n      0x00\n        /* \"TechnoLime_Store.sol\":1145:1160  clientPurchases */\n      0x02\n        /* \"TechnoLime_Store.sol\":1145:1172  clientPurchases[msg.sender] */\n      0x00\n        /* \"TechnoLime_Store.sol\":1161:1171  msg.sender */\n      caller\n        /* \"TechnoLime_Store.sol\":1145:1172  clientPurchases[msg.sender] */\n      0xffffffffffffffffffffffffffffffffffffffff\n      and\n      0xffffffffffffffffffffffffffffffffffffffff\n      and\n      dup2\n      mstore\n      0x20\n      add\n      swap1\n      dup2\n      mstore\n      0x20\n      add\n      0x00\n      keccak256\n        /* \"TechnoLime_Store.sol\":1145:1177  clientPurchases[msg.sender][_id] */\n      0x00\n        /* \"TechnoLime_Store.sol\":1173:1176  _id */\n      dup4\n        /* \"TechnoLime_Store.sol\":1145:1177  clientPurchases[msg.sender][_id] */\n      dup2\n      mstore\n      0x20\n      add\n      swap1\n      dup2\n      mstore\n      0x20\n      add\n      0x00\n      keccak256\n        /* \"TechnoLime_Store.sol\":1145:1186  clientPurchases[msg.sender][_id].quantity */\n      0x00\n      add\n      sload\n        /* \"TechnoLime_Store.sol\":1145:1190  clientPurchases[msg.sender][_id].quantity > 0 */\n      gt\n        /* \"TechnoLime_Store.sol\":1137:1213  require(clientPurchases[msg.sender][_id].quantity > 0, \"No items to return\") */\n      tag_56\n      jumpi\n      mload(0x40)\n      0x08c379a000000000000000000000000000000000000000000000000000000000\n      dup2\n      mstore\n      0x04\n      add\n      tag_57\n      swap1\n      tag_58\n      jump\t// in\n    tag_57:\n      mload(0x40)\n      dup1\n      swap2\n      sub\n      swap1\n      revert\n    tag_56:\n        /* \"TechnoLime_Store.sol\":1282:1285  100 */\n      0x64\n        /* \"TechnoLime_Store.sol\":1236:1251  clientPurchases */\n      0x02\n        /* \"TechnoLime_Store.sol\":1236:1263  clientPurchases[msg.sender] */\n      0x00\n        /* \"TechnoLime_Store.sol\":1252:1262  msg.sender */\n      caller\n        /* \"TechnoLime_Store.sol\":1236:1263  clientPurchases[msg.sender] */\n      0xffffffffffffffffffffffffffffffffffffffff\n      and\n      0xffffffffffffffffffffffffffffffffffffffff\n      and\n      dup2\n      mstore\n      0x20\n      add\n      swap1\n      dup2\n      mstore\n      0x20\n      add\n      0x00\n      keccak256\n        /* \"TechnoLime_Store.sol\":1236:1268  clientPurchases[msg.sender][_id] */\n      0x00\n        /* \"TechnoLime_Store.sol\":1264:1267  _id */\n      dup4\n        /* \"TechnoLime_Store.sol\":1236:1268  clientPurchases[msg.sender][_id] */\n      dup2\n      mstore\n      0x20\n      add\n      swap1\n      dup2\n      mstore\n      0x20\n      add\n      0x00\n      keccak256\n        /* \"TechnoLime_Store.sol\":1236:1278  clientPurchases[msg.sender][_id].blocktime */\n      0x01\n      add\n      sload\n        /* \"TechnoLime_Store.sol\":1221:1233  block.number */\n      number\n        /* \"TechnoLime_Store.sol\":1221:1278  block.number - clientPurchases[msg.sender][_id].blocktime */\n      tag_59\n      swap2\n      swap1\n      tag_60\n      jump\t// in\n    tag_59:\n        /* \"TechnoLime_Store.sol\":1221:1285  block.number - clientPurchases[msg.sender][_id].blocktime <= 100 */\n      gt\n        /* \"TechnoLime_Store.sol\":1218:1357  if(block.number - clientPurchases[msg.sender][_id].blocktime <= 100) {... */\n      tag_61\n      jumpi\n        /* \"TechnoLime_Store.sol\":1300:1315  clientPurchases */\n      0x02\n        /* \"TechnoLime_Store.sol\":1300:1327  clientPurchases[msg.sender] */\n      0x00\n        /* \"TechnoLime_Store.sol\":1316:1326  msg.sender */\n      caller\n        /* \"TechnoLime_Store.sol\":1300:1327  clientPurchases[msg.sender] */\n      0xffffffffffffffffffffffffffffffffffffffff\n      and\n      0xffffffffffffffffffffffffffffffffffffffff\n      and\n      dup2\n      mstore\n      0x20\n      add\n      swap1\n      dup2\n      mstore\n      0x20\n      add\n      0x00\n      keccak256\n        /* \"TechnoLime_Store.sol\":1300:1332  clientPurchases[msg.sender][_id] */\n      0x00\n        /* \"TechnoLime_Store.sol\":1328:1331  _id */\n      dup3\n        /* \"TechnoLime_Store.sol\":1300:1332  clientPurchases[msg.sender][_id] */\n      dup2\n      mstore\n      0x20\n      add\n      swap1\n      dup2\n      mstore\n      0x20\n      add\n      0x00\n      keccak256\n      0x00\n        /* \"TechnoLime_Store.sol\":1293:1332  delete clientPurchases[msg.sender][_id] */\n      dup1\n      dup3\n      add\n      0x00\n      swap1\n      sstore\n      0x01\n      dup3\n      add\n      0x00\n      swap1\n      sstore\n      pop\n      pop\n        /* \"TechnoLime_Store.sol\":1338:1343  items */\n      0x01\n        /* \"TechnoLime_Store.sol\":1338:1348  items[_id] */\n      0x00\n        /* \"TechnoLime_Store.sol\":1344:1347  _id */\n      dup3\n        /* \"TechnoLime_Store.sol\":1338:1348  items[_id] */\n      dup2\n      mstore\n      0x20\n      add\n      swap1\n      dup2\n      mstore\n      0x20\n      add\n      0x00\n      keccak256\n      0x00\n        /* \"TechnoLime_Store.sol\":1338:1351  items[_id] ++ */\n      dup2\n      sload\n      dup1\n      swap3\n      swap2\n      swap1\n      tag_62\n      swap1\n      tag_63\n      jump\t// in\n    tag_62:\n      swap2\n      swap1\n      pop\n      sstore\n      pop\n        /* \"TechnoLime_Store.sol\":1218:1357  if(block.number - clientPurchases[msg.sender][_id].blocktime <= 100) {... */\n    tag_61:\n        /* \"TechnoLime_Store.sol\":1048:1361  function returnItem(uint _id) public {... */\n      pop\n      jump\t// out\n        /* \"TechnoLime_Store.sol\":215:283  mapping(address => mapping(uint => SoldItem)) public clientPurchases */\n    tag_20:\n      mstore(0x20, 0x02)\n      dup2\n      0x00\n      mstore\n      mstore(0x20, keccak256(0x00, 0x40))\n      dup1\n      0x00\n      mstore\n      keccak256(0x00, 0x40)\n      0x00\n      swap2\n      pop\n      swap2\n      pop\n      pop\n      dup1\n      0x00\n      add\n      sload\n      swap1\n      dup1\n      0x01\n      add\n      sload\n      swap1\n      pop\n      dup3\n      jump\t// out\n        /* \"TechnoLime_Store.sol\":540:621  function listItems(uint _id) public view returns(uint){... */\n    tag_25:\n        /* \"TechnoLime_Store.sol\":589:593  uint */\n      0x00\n        /* \"TechnoLime_Store.sol\":606:611  items */\n      0x01\n        /* \"TechnoLime_Store.sol\":606:616  items[_id] */\n      0x00\n        /* \"TechnoLime_Store.sol\":612:615  _id */\n      dup4\n        /* \"TechnoLime_Store.sol\":606:616  items[_id] */\n      dup2\n      mstore\n      0x20\n      add\n      swap1\n      dup2\n      mstore\n      0x20\n      add\n      0x00\n      keccak256\n      sload\n        /* \"TechnoLime_Store.sol\":599:616  return items[_id] */\n      swap1\n      pop\n        /* \"TechnoLime_Store.sol\":540:621  function listItems(uint _id) public view returns(uint){... */\n      swap2\n      swap1\n      pop\n      jump\t// out\n        /* \"TechnoLime_Store.sol\":404:535  function addItem(uint _id, uint _quiantity) public {... */\n    tag_31:\n        /* \"TechnoLime_Store.sol\":482:487  owner */\n      0x00\n      dup1\n      sload\n      swap1\n      0x0100\n      exp\n      swap1\n      div\n      0xffffffffffffffffffffffffffffffffffffffff\n      and\n        /* \"TechnoLime_Store.sol\":468:487  msg.sender == owner */\n      0xffffffffffffffffffffffffffffffffffffffff\n      and\n        /* \"TechnoLime_Store.sol\":468:478  msg.sender */\n      caller\n        /* \"TechnoLime_Store.sol\":468:487  msg.sender == owner */\n      0xffffffffffffffffffffffffffffffffffffffff\n      and\n      eq\n        /* \"TechnoLime_Store.sol\":460:501  require(msg.sender == owner, \"Not owner\") */\n      tag_66\n      jumpi\n      mload(0x40)\n      0x08c379a000000000000000000000000000000000000000000000000000000000\n      dup2\n      mstore\n      0x04\n      add\n      tag_67\n      swap1\n      tag_68\n      jump\t// in\n    tag_67:\n      mload(0x40)\n      dup1\n      swap2\n      sub\n      swap1\n      revert\n    tag_66:\n        /* \"TechnoLime_Store.sol\":520:530  _quiantity */\n      dup1\n        /* \"TechnoLime_Store.sol\":506:511  items */\n      0x01\n        /* \"TechnoLime_Store.sol\":506:516  items[_id] */\n      0x00\n        /* \"TechnoLime_Store.sol\":512:515  _id */\n      dup5\n        /* \"TechnoLime_Store.sol\":506:516  items[_id] */\n      dup2\n      mstore\n      0x20\n      add\n      swap1\n      dup2\n      mstore\n      0x20\n      add\n      0x00\n      keccak256\n      0x00\n        /* \"TechnoLime_Store.sol\":506:530  items[_id] += _quiantity */\n      dup3\n      dup3\n      sload\n      tag_69\n      swap2\n      swap1\n      tag_70\n      jump\t// in\n    tag_69:\n      swap3\n      pop\n      pop\n      dup2\n      swap1\n      sstore\n      pop\n        /* \"TechnoLime_Store.sol\":404:535  function addItem(uint _id, uint _quiantity) public {... */\n      pop\n      pop\n      jump\t// out\n        /* \"TechnoLime_Store.sol\":1367:1499  function listClientItems(address _client, uint _id) public view returns(uint){... */\n    tag_34:\n        /* \"TechnoLime_Store.sol\":1439:1443  uint */\n      0x00\n        /* \"TechnoLime_Store.sol\":1456:1471  clientPurchases */\n      0x02\n        /* \"TechnoLime_Store.sol\":1456:1480  clientPurchases[_client] */\n      0x00\n        /* \"TechnoLime_Store.sol\":1472:1479  _client */\n      dup5\n        /* \"TechnoLime_Store.sol\":1456:1480  clientPurchases[_client] */\n      0xffffffffffffffffffffffffffffffffffffffff\n      and\n      0xffffffffffffffffffffffffffffffffffffffff\n      and\n      dup2\n      mstore\n      0x20\n      add\n      swap1\n      dup2\n      mstore\n      0x20\n      add\n      0x00\n      keccak256\n        /* \"TechnoLime_Store.sol\":1456:1485  clientPurchases[_client][_id] */\n      0x00\n        /* \"TechnoLime_Store.sol\":1481:1484  _id */\n      dup4\n        /* \"TechnoLime_Store.sol\":1456:1485  clientPurchases[_client][_id] */\n      dup2\n      mstore\n      0x20\n      add\n      swap1\n      dup2\n      mstore\n      0x20\n      add\n      0x00\n      keccak256\n        /* \"TechnoLime_Store.sol\":1456:1494  clientPurchases[_client][_id].quantity */\n      0x00\n      add\n      sload\n        /* \"TechnoLime_Store.sol\":1449:1494  return clientPurchases[_client][_id].quantity */\n      swap1\n      pop\n        /* \"TechnoLime_Store.sol\":1367:1499  function listClientItems(address _client, uint _id) public view returns(uint){... */\n      swap3\n      swap2\n      pop\n      pop\n      jump\t// out\n        /* \"TechnoLime_Store.sol\":177:211  mapping(uint => uint) public items */\n    tag_38:\n      mstore(0x20, 0x01)\n      dup1\n      0x00\n      mstore\n      keccak256(0x00, 0x40)\n      0x00\n      swap2\n      pop\n      swap1\n      pop\n      sload\n      dup2\n      jump\t// out\n        /* \"TechnoLime_Store.sol\":1504:1745  function listClients() public view returns(address[] memory) {... */\n    tag_41:\n        /* \"TechnoLime_Store.sol\":1547:1563  address[] memory */\n      0x60\n        /* \"TechnoLime_Store.sol\":1570:1601  address[] memory clientsInStore */\n      0x00\n        /* \"TechnoLime_Store.sol\":1618:1630  totalClients */\n      sload(0x04)\n        /* \"TechnoLime_Store.sol\":1604:1631  new address[](totalClients) */\n      0xffffffffffffffff\n      dup2\n      gt\n      iszero\n      tag_73\n      jumpi\n      tag_74\n      tag_75\n      jump\t// in\n    tag_74:\n    tag_73:\n      mload(0x40)\n      swap1\n      dup1\n      dup3\n      mstore\n      dup1\n      0x20\n      mul\n      0x20\n      add\n      dup3\n      add\n      0x40\n      mstore\n      dup1\n      iszero\n      tag_76\n      jumpi\n      dup2\n      0x20\n      add\n      0x20\n      dup3\n      mul\n      dup1\n      calldatasize\n      dup4\n      calldatacopy\n      dup1\n      dup3\n      add\n      swap2\n      pop\n      pop\n      swap1\n      pop\n    tag_76:\n      pop\n        /* \"TechnoLime_Store.sol\":1570:1631  address[] memory clientsInStore = new address[](totalClients) */\n      swap1\n      pop\n        /* \"TechnoLime_Store.sol\":1640:1646  uint i */\n      0x00\n        /* \"TechnoLime_Store.sol\":1636:1713  for(uint i; i < totalClients; i++) {... */\n    tag_77:\n        /* \"TechnoLime_Store.sol\":1652:1664  totalClients */\n      sload(0x04)\n        /* \"TechnoLime_Store.sol\":1648:1649  i */\n      dup2\n        /* \"TechnoLime_Store.sol\":1648:1664  i < totalClients */\n      lt\n        /* \"TechnoLime_Store.sol\":1636:1713  for(uint i; i < totalClients; i++) {... */\n      iszero\n      tag_78\n      jumpi\n        /* \"TechnoLime_Store.sol\":1697:1704  clients */\n      0x03\n        /* \"TechnoLime_Store.sol\":1697:1707  clients[i] */\n      0x00\n        /* \"TechnoLime_Store.sol\":1705:1706  i */\n      dup3\n        /* \"TechnoLime_Store.sol\":1697:1707  clients[i] */\n      dup2\n      mstore\n      0x20\n      add\n      swap1\n      dup2\n      mstore\n      0x20\n      add\n      0x00\n      keccak256\n      0x00\n      swap1\n      sload\n      swap1\n      0x0100\n      exp\n      swap1\n      div\n      0xffffffffffffffffffffffffffffffffffffffff\n      and\n        /* \"TechnoLime_Store.sol\":1677:1691  clientsInStore */\n      dup3\n        /* \"TechnoLime_Store.sol\":1692:1693  i */\n      dup3\n        /* \"TechnoLime_Store.sol\":1677:1694  clientsInStore[i] */\n      dup2\n      mload\n      dup2\n      lt\n      tag_80\n      jumpi\n      tag_81\n      tag_82\n      jump\t// in\n    tag_81:\n    tag_80:\n      0x20\n      mul\n      0x20\n      add\n      add\n        /* \"TechnoLime_Store.sol\":1677:1707  clientsInStore[i] = clients[i] */\n      swap1\n      0xffffffffffffffffffffffffffffffffffffffff\n      and\n      swap1\n      dup2\n      0xffffffffffffffffffffffffffffffffffffffff\n      and\n      dup2\n      mstore\n      pop\n      pop\n        /* \"TechnoLime_Store.sol\":1666:1669  i++ */\n      dup1\n      dup1\n      tag_83\n      swap1\n      tag_63\n      jump\t// in\n    tag_83:\n      swap2\n      pop\n      pop\n        /* \"TechnoLime_Store.sol\":1636:1713  for(uint i; i < totalClients; i++) {... */\n      jump(tag_77)\n    tag_78:\n      pop\n        /* \"TechnoLime_Store.sol\":1726:1740  clientsInStore */\n      dup1\n        /* \"TechnoLime_Store.sol\":1719:1740  return clientsInStore */\n      swap2\n      pop\n      pop\n        /* \"TechnoLime_Store.sol\":1504:1745  function listClients() public view returns(address[] memory) {... */\n      swap1\n      jump\t// out\n        /* \"TechnoLime_Store.sol\":626:1043  function buyItem(uint _id) public {... */\n    tag_46:\n        /* \"TechnoLime_Store.sol\":687:692  owner */\n      0x00\n      dup1\n      sload\n      swap1\n      0x0100\n      exp\n      swap1\n      div\n      0xffffffffffffffffffffffffffffffffffffffff\n      and\n        /* \"TechnoLime_Store.sol\":673:692  msg.sender != owner */\n      0xffffffffffffffffffffffffffffffffffffffff\n      and\n        /* \"TechnoLime_Store.sol\":673:683  msg.sender */\n      caller\n        /* \"TechnoLime_Store.sol\":673:692  msg.sender != owner */\n      0xffffffffffffffffffffffffffffffffffffffff\n      and\n      sub\n        /* \"TechnoLime_Store.sol\":665:707  require(msg.sender != owner, \"Not client\") */\n      tag_85\n      jumpi\n      mload(0x40)\n      0x08c379a000000000000000000000000000000000000000000000000000000000\n      dup2\n      mstore\n      0x04\n      add\n      tag_86\n      swap1\n      tag_55\n      jump\t// in\n    tag_86:\n      mload(0x40)\n      dup1\n      swap2\n      sub\n      swap1\n      revert\n    tag_85:\n        /* \"TechnoLime_Store.sol\":765:766  0 */\n      0x00\n        /* \"TechnoLime_Store.sol\":720:735  clientPurchases */\n      0x02\n        /* \"TechnoLime_Store.sol\":720:747  clientPurchases[msg.sender] */\n      0x00\n        /* \"TechnoLime_Store.sol\":736:746  msg.sender */\n      caller\n        /* \"TechnoLime_Store.sol\":720:747  clientPurchases[msg.sender] */\n      0xffffffffffffffffffffffffffffffffffffffff\n      and\n      0xffffffffffffffffffffffffffffffffffffffff\n      and\n      dup2\n      mstore\n      0x20\n      add\n      swap1\n      dup2\n      mstore\n      0x20\n      add\n      0x00\n      keccak256\n        /* \"TechnoLime_Store.sol\":720:752  clientPurchases[msg.sender][_id] */\n      0x00\n        /* \"TechnoLime_Store.sol\":748:751  _id */\n      dup4\n        /* \"TechnoLime_Store.sol\":720:752  clientPurchases[msg.sender][_id] */\n      dup2\n      mstore\n      0x20\n      add\n      swap1\n      dup2\n      mstore\n      0x20\n      add\n      0x00\n      keccak256\n        /* \"TechnoLime_Store.sol\":720:761  clientPurchases[msg.sender][_id].quantity */\n      0x00\n      add\n      sload\n        /* \"TechnoLime_Store.sol\":720:766  clientPurchases[msg.sender][_id].quantity == 0 */\n      eq\n        /* \"TechnoLime_Store.sol\":712:802  require(clientPurchases[msg.sender][_id].quantity == 0, \"Client already has this product\") */\n      tag_87\n      jumpi\n      mload(0x40)\n      0x08c379a000000000000000000000000000000000000000000000000000000000\n      dup2\n      mstore\n      0x04\n      add\n      tag_88\n      swap1\n      tag_89\n      jump\t// in\n    tag_88:\n      mload(0x40)\n      dup1\n      swap2\n      sub\n      swap1\n      revert\n    tag_87:\n        /* \"TechnoLime_Store.sol\":828:829  0 */\n      0x00\n        /* \"TechnoLime_Store.sol\":815:820  items */\n      0x01\n        /* \"TechnoLime_Store.sol\":815:825  items[_id] */\n      0x00\n        /* \"TechnoLime_Store.sol\":821:824  _id */\n      dup4\n        /* \"TechnoLime_Store.sol\":815:825  items[_id] */\n      dup2\n      mstore\n      0x20\n      add\n      swap1\n      dup2\n      mstore\n      0x20\n      add\n      0x00\n      keccak256\n      sload\n        /* \"TechnoLime_Store.sol\":815:829  items[_id] > 0 */\n      gt\n        /* \"TechnoLime_Store.sol\":807:850  require(items[_id] > 0, \"No items to sell\") */\n      tag_90\n      jumpi\n      mload(0x40)\n      0x08c379a000000000000000000000000000000000000000000000000000000000\n      dup2\n      mstore\n      0x04\n      add\n      tag_91\n      swap1\n      tag_92\n      jump\t// in\n    tag_91:\n      mload(0x40)\n      dup1\n      swap2\n      sub\n      swap1\n      revert\n    tag_90:\n        /* \"TechnoLime_Store.sol\":855:870  clientPurchases */\n      0x02\n        /* \"TechnoLime_Store.sol\":855:882  clientPurchases[msg.sender] */\n      0x00\n        /* \"TechnoLime_Store.sol\":871:881  msg.sender */\n      caller\n        /* \"TechnoLime_Store.sol\":855:882  clientPurchases[msg.sender] */\n      0xffffffffffffffffffffffffffffffffffffffff\n      and\n      0xffffffffffffffffffffffffffffffffffffffff\n      and\n      dup2\n      mstore\n      0x20\n      add\n      swap1\n      dup2\n      mstore\n      0x20\n      add\n      0x00\n      keccak256\n        /* \"TechnoLime_Store.sol\":855:887  clientPurchases[msg.sender][_id] */\n      0x00\n        /* \"TechnoLime_Store.sol\":883:886  _id */\n      dup3\n        /* \"TechnoLime_Store.sol\":855:887  clientPurchases[msg.sender][_id] */\n      dup2\n      mstore\n      0x20\n      add\n      swap1\n      dup2\n      mstore\n      0x20\n      add\n      0x00\n      keccak256\n        /* \"TechnoLime_Store.sol\":855:896  clientPurchases[msg.sender][_id].quantity */\n      0x00\n      add\n      0x00\n        /* \"TechnoLime_Store.sol\":855:899  clientPurchases[msg.sender][_id].quantity ++ */\n      dup2\n      sload\n      dup1\n      swap3\n      swap2\n      swap1\n      tag_93\n      swap1\n      tag_63\n      jump\t// in\n    tag_93:\n      swap2\n      swap1\n      pop\n      sstore\n      pop\n        /* \"TechnoLime_Store.sol\":949:961  block.number */\n      number\n        /* \"TechnoLime_Store.sol\":904:919  clientPurchases */\n      0x02\n        /* \"TechnoLime_Store.sol\":904:931  clientPurchases[msg.sender] */\n      0x00\n        /* \"TechnoLime_Store.sol\":920:930  msg.sender */\n      caller\n        /* \"TechnoLime_Store.sol\":904:931  clientPurchases[msg.sender] */\n      0xffffffffffffffffffffffffffffffffffffffff\n      and\n      0xffffffffffffffffffffffffffffffffffffffff\n      and\n      dup2\n      mstore\n      0x20\n      add\n      swap1\n      dup2\n      mstore\n      0x20\n      add\n      0x00\n      keccak256\n        /* \"TechnoLime_Store.sol\":904:936  clientPurchases[msg.sender][_id] */\n      0x00\n        /* \"TechnoLime_Store.sol\":932:935  _id */\n      dup4\n        /* \"TechnoLime_Store.sol\":904:936  clientPurchases[msg.sender][_id] */\n      dup2\n      mstore\n      0x20\n      add\n      swap1\n      dup2\n      mstore\n      0x20\n      add\n      0x00\n      keccak256\n        /* \"TechnoLime_Store.sol\":904:946  clientPurchases[msg.sender][_id].blocktime */\n      0x01\n      add\n        /* \"TechnoLime_Store.sol\":904:961  clientPurchases[msg.sender][_id].blocktime = block.number */\n      dup2\n      swap1\n      sstore\n      pop\n        /* \"TechnoLime_Store.sol\":966:971  items */\n      0x01\n        /* \"TechnoLime_Store.sol\":966:976  items[_id] */\n      0x00\n        /* \"TechnoLime_Store.sol\":972:975  _id */\n      dup3\n        /* \"TechnoLime_Store.sol\":966:976  items[_id] */\n      dup2\n      mstore\n      0x20\n      add\n      swap1\n      dup2\n      mstore\n      0x20\n      add\n      0x00\n      keccak256\n      0x00\n        /* \"TechnoLime_Store.sol\":966:979  items[_id] -- */\n      dup2\n      sload\n      dup1\n      swap3\n      swap2\n      swap1\n      tag_94\n      swap1\n      tag_95\n      jump\t// in\n    tag_94:\n      swap2\n      swap1\n      pop\n      sstore\n      pop\n        /* \"TechnoLime_Store.sol\":1008:1018  msg.sender */\n      caller\n        /* \"TechnoLime_Store.sol\":984:991  clients */\n      0x03\n        /* \"TechnoLime_Store.sol\":984:1005  clients[totalClients] */\n      0x00\n        /* \"TechnoLime_Store.sol\":992:1004  totalClients */\n      sload(0x04)\n        /* \"TechnoLime_Store.sol\":984:1005  clients[totalClients] */\n      dup2\n      mstore\n      0x20\n      add\n      swap1\n      dup2\n      mstore\n      0x20\n      add\n      0x00\n      keccak256\n      0x00\n        /* \"TechnoLime_Store.sol\":984:1018  clients[totalClients] = msg.sender */\n      0x0100\n      exp\n      dup2\n      sload\n      dup2\n      0xffffffffffffffffffffffffffffffffffffffff\n      mul\n      not\n      and\n      swap1\n      dup4\n      0xffffffffffffffffffffffffffffffffffffffff\n      and\n      mul\n      or\n      swap1\n      sstore\n      pop\n        /* \"TechnoLime_Store.sol\":1023:1035  totalClients */\n      0x04\n      0x00\n        /* \"TechnoLime_Store.sol\":1023:1038  totalClients ++ */\n      dup2\n      sload\n      dup1\n      swap3\n      swap2\n      swap1\n      tag_96\n      swap1\n      tag_63\n      jump\t// in\n    tag_96:\n      swap2\n      swap1\n      pop\n      sstore\n      pop\n        /* \"TechnoLime_Store.sol\":626:1043  function buyItem(uint _id) public {... */\n      pop\n      jump\t// out\n        /* \"TechnoLime_Store.sol\":287:326  mapping(uint => address) public clients */\n    tag_49:\n      mstore(0x20, 0x03)\n      dup1\n      0x00\n      mstore\n      keccak256(0x00, 0x40)\n      0x00\n      swap2\n      pop\n      sload\n      swap1\n      0x0100\n      exp\n      swap1\n      div\n      0xffffffffffffffffffffffffffffffffffffffff\n      and\n      dup2\n      jump\t// out\n        /* \"#utility.yul\":88:205   */\n    tag_98:\n        /* \"#utility.yul\":197:198   */\n      0x00\n        /* \"#utility.yul\":194:195   */\n      dup1\n        /* \"#utility.yul\":187:199   */\n      revert\n        /* \"#utility.yul\":334:411   */\n    tag_100:\n        /* \"#utility.yul\":371:378   */\n      0x00\n        /* \"#utility.yul\":400:405   */\n      dup2\n        /* \"#utility.yul\":389:405   */\n      swap1\n      pop\n        /* \"#utility.yul\":334:411   */\n      swap2\n      swap1\n      pop\n      jump\t// out\n        /* \"#utility.yul\":417:539   */\n    tag_101:\n        /* \"#utility.yul\":490:514   */\n      tag_134\n        /* \"#utility.yul\":508:513   */\n      dup2\n        /* \"#utility.yul\":490:514   */\n      tag_100\n      jump\t// in\n    tag_134:\n        /* \"#utility.yul\":483:488   */\n      dup2\n        /* \"#utility.yul\":480:515   */\n      eq\n        /* \"#utility.yul\":470:533   */\n      tag_135\n      jumpi\n        /* \"#utility.yul\":529:530   */\n      0x00\n        /* \"#utility.yul\":526:527   */\n      dup1\n        /* \"#utility.yul\":519:531   */\n      revert\n        /* \"#utility.yul\":470:533   */\n    tag_135:\n        /* \"#utility.yul\":417:539   */\n      pop\n      jump\t// out\n        /* \"#utility.yul\":545:684   */\n    tag_102:\n        /* \"#utility.yul\":591:596   */\n      0x00\n        /* \"#utility.yul\":629:635   */\n      dup2\n        /* \"#utility.yul\":616:636   */\n      calldataload\n        /* \"#utility.yul\":607:636   */\n      swap1\n      pop\n        /* \"#utility.yul\":645:678   */\n      tag_137\n        /* \"#utility.yul\":672:677   */\n      dup2\n        /* \"#utility.yul\":645:678   */\n      tag_101\n      jump\t// in\n    tag_137:\n        /* \"#utility.yul\":545:684   */\n      swap3\n      swap2\n      pop\n      pop\n      jump\t// out\n        /* \"#utility.yul\":690:1019   */\n    tag_15:\n        /* \"#utility.yul\":749:755   */\n      0x00\n        /* \"#utility.yul\":798:800   */\n      0x20\n        /* \"#utility.yul\":786:795   */\n      dup3\n        /* \"#utility.yul\":777:784   */\n      dup5\n        /* \"#utility.yul\":773:796   */\n      sub\n        /* \"#utility.yul\":769:801   */\n      slt\n        /* \"#utility.yul\":766:885   */\n      iszero\n      tag_139\n      jumpi\n        /* \"#utility.yul\":804:883   */\n      tag_140\n      tag_98\n      jump\t// in\n    tag_140:\n        /* \"#utility.yul\":766:885   */\n    tag_139:\n        /* \"#utility.yul\":924:925   */\n      0x00\n        /* \"#utility.yul\":949:1002   */\n      tag_141\n        /* \"#utility.yul\":994:1001   */\n      dup5\n        /* \"#utility.yul\":985:991   */\n      dup3\n        /* \"#utility.yul\":974:983   */\n      dup6\n        /* \"#utility.yul\":970:992   */\n      add\n        /* \"#utility.yul\":949:1002   */\n      tag_102\n      jump\t// in\n    tag_141:\n        /* \"#utility.yul\":939:1002   */\n      swap2\n      pop\n        /* \"#utility.yul\":895:1012   */\n      pop\n        /* \"#utility.yul\":690:1019   */\n      swap3\n      swap2\n      pop\n      pop\n      jump\t// out\n        /* \"#utility.yul\":1025:1151   */\n    tag_103:\n        /* \"#utility.yul\":1062:1069   */\n      0x00\n        /* \"#utility.yul\":1102:1144   */\n      0xffffffffffffffffffffffffffffffffffffffff\n        /* \"#utility.yul\":1095:1100   */\n      dup3\n        /* \"#utility.yul\":1091:1145   */\n      and\n        /* \"#utility.yul\":1080:1145   */\n      swap1\n      pop\n        /* \"#utility.yul\":1025:1151   */\n      swap2\n      swap1\n      pop\n      jump\t// out\n        /* \"#utility.yul\":1157:1253   */\n    tag_104:\n        /* \"#utility.yul\":1194:1201   */\n      0x00\n        /* \"#utility.yul\":1223:1247   */\n      tag_144\n        /* \"#utility.yul\":1241:1246   */\n      dup3\n        /* \"#utility.yul\":1223:1247   */\n      tag_103\n      jump\t// in\n    tag_144:\n        /* \"#utility.yul\":1212:1247   */\n      swap1\n      pop\n        /* \"#utility.yul\":1157:1253   */\n      swap2\n      swap1\n      pop\n      jump\t// out\n        /* \"#utility.yul\":1259:1381   */\n    tag_105:\n        /* \"#utility.yul\":1332:1356   */\n      tag_146\n        /* \"#utility.yul\":1350:1355   */\n      dup2\n        /* \"#utility.yul\":1332:1356   */\n      tag_104\n      jump\t// in\n    tag_146:\n        /* \"#utility.yul\":1325:1330   */\n      dup2\n        /* \"#utility.yul\":1322:1357   */\n      eq\n        /* \"#utility.yul\":1312:1375   */\n      tag_147\n      jumpi\n        /* \"#utility.yul\":1371:1372   */\n      0x00\n        /* \"#utility.yul\":1368:1369   */\n      dup1\n        /* \"#utility.yul\":1361:1373   */\n      revert\n        /* \"#utility.yul\":1312:1375   */\n    tag_147:\n        /* \"#utility.yul\":1259:1381   */\n      pop\n      jump\t// out\n        /* \"#utility.yul\":1387:1526   */\n    tag_106:\n        /* \"#utility.yul\":1433:1438   */\n      0x00\n        /* \"#utility.yul\":1471:1477   */\n      dup2\n        /* \"#utility.yul\":1458:1478   */\n      calldataload\n        /* \"#utility.yul\":1449:1478   */\n      swap1\n      pop\n        /* \"#utility.yul\":1487:1520   */\n      tag_149\n        /* \"#utility.yul\":1514:1519   */\n      dup2\n        /* \"#utility.yul\":1487:1520   */\n      tag_105\n      jump\t// in\n    tag_149:\n        /* \"#utility.yul\":1387:1526   */\n      swap3\n      swap2\n      pop\n      pop\n      jump\t// out\n        /* \"#utility.yul\":1532:2006   */\n    tag_19:\n        /* \"#utility.yul\":1600:1606   */\n      0x00\n        /* \"#utility.yul\":1608:1614   */\n      dup1\n        /* \"#utility.yul\":1657:1659   */\n      0x40\n        /* \"#utility.yul\":1645:1654   */\n      dup4\n        /* \"#utility.yul\":1636:1643   */\n      dup6\n        /* \"#utility.yul\":1632:1655   */\n      sub\n        /* \"#utility.yul\":1628:1660   */\n      slt\n        /* \"#utility.yul\":1625:1744   */\n      iszero\n      tag_151\n      jumpi\n        /* \"#utility.yul\":1663:1742   */\n      tag_152\n      tag_98\n      jump\t// in\n    tag_152:\n        /* \"#utility.yul\":1625:1744   */\n    tag_151:\n        /* \"#utility.yul\":1783:1784   */\n      0x00\n        /* \"#utility.yul\":1808:1861   */\n      tag_153\n        /* \"#utility.yul\":1853:1860   */\n      dup6\n        /* \"#utility.yul\":1844:1850   */\n      dup3\n        /* \"#utility.yul\":1833:1842   */\n      dup7\n        /* \"#utility.yul\":1829:1851   */\n      add\n        /* \"#utility.yul\":1808:1861   */\n      tag_106\n      jump\t// in\n    tag_153:\n        /* \"#utility.yul\":1798:1861   */\n      swap3\n      pop\n        /* \"#utility.yul\":1754:1871   */\n      pop\n        /* \"#utility.yul\":1910:1912   */\n      0x20\n        /* \"#utility.yul\":1936:1989   */\n      tag_154\n        /* \"#utility.yul\":1981:1988   */\n      dup6\n        /* \"#utility.yul\":1972:1978   */\n      dup3\n        /* \"#utility.yul\":1961:1970   */\n      dup7\n        /* \"#utility.yul\":1957:1979   */\n      add\n        /* \"#utility.yul\":1936:1989   */\n      tag_102\n      jump\t// in\n    tag_154:\n        /* \"#utility.yul\":1926:1989   */\n      swap2\n      pop\n        /* \"#utility.yul\":1881:1999   */\n      pop\n        /* \"#utility.yul\":1532:2006   */\n      swap3\n      pop\n      swap3\n      swap1\n      pop\n      jump\t// out\n        /* \"#utility.yul\":2012:2130   */\n    tag_107:\n        /* \"#utility.yul\":2099:2123   */\n      tag_156\n        /* \"#utility.yul\":2117:2122   */\n      dup2\n        /* \"#utility.yul\":2099:2123   */\n      tag_100\n      jump\t// in\n    tag_156:\n        /* \"#utility.yul\":2094:2097   */\n      dup3\n        /* \"#utility.yul\":2087:2124   */\n      mstore\n        /* \"#utility.yul\":2012:2130   */\n      pop\n      pop\n      jump\t// out\n        /* \"#utility.yul\":2136:2468   */\n    tag_22:\n        /* \"#utility.yul\":2257:2261   */\n      0x00\n        /* \"#utility.yul\":2295:2297   */\n      0x40\n        /* \"#utility.yul\":2284:2293   */\n      dup3\n        /* \"#utility.yul\":2280:2298   */\n      add\n        /* \"#utility.yul\":2272:2298   */\n      swap1\n      pop\n        /* \"#utility.yul\":2308:2379   */\n      tag_158\n        /* \"#utility.yul\":2376:2377   */\n      0x00\n        /* \"#utility.yul\":2365:2374   */\n      dup4\n        /* \"#utility.yul\":2361:2378   */\n      add\n        /* \"#utility.yul\":2352:2358   */\n      dup6\n        /* \"#utility.yul\":2308:2379   */\n      tag_107\n      jump\t// in\n    tag_158:\n        /* \"#utility.yul\":2389:2461   */\n      tag_159\n        /* \"#utility.yul\":2457:2459   */\n      0x20\n        /* \"#utility.yul\":2446:2455   */\n      dup4\n        /* \"#utility.yul\":2442:2460   */\n      add\n        /* \"#utility.yul\":2433:2439   */\n      dup5\n        /* \"#utility.yul\":2389:2461   */\n      tag_107\n      jump\t// in\n    tag_159:\n        /* \"#utility.yul\":2136:2468   */\n      swap4\n      swap3\n      pop\n      pop\n      pop\n      jump\t// out\n        /* \"#utility.yul\":2474:2696   */\n    tag_27:\n        /* \"#utility.yul\":2567:2571   */\n      0x00\n        /* \"#utility.yul\":2605:2607   */\n      0x20\n        /* \"#utility.yul\":2594:2603   */\n      dup3\n        /* \"#utility.yul\":2590:2608   */\n      add\n        /* \"#utility.yul\":2582:2608   */\n      swap1\n      pop\n        /* \"#utility.yul\":2618:2689   */\n      tag_161\n        /* \"#utility.yul\":2686:2687   */\n      0x00\n        /* \"#utility.yul\":2675:2684   */\n      dup4\n        /* \"#utility.yul\":2671:2688   */\n      add\n        /* \"#utility.yul\":2662:2668   */\n      dup5\n        /* \"#utility.yul\":2618:2689   */\n      tag_107\n      jump\t// in\n    tag_161:\n        /* \"#utility.yul\":2474:2696   */\n      swap3\n      swap2\n      pop\n      pop\n      jump\t// out\n        /* \"#utility.yul\":2702:3176   */\n    tag_30:\n        /* \"#utility.yul\":2770:2776   */\n      0x00\n        /* \"#utility.yul\":2778:2784   */\n      dup1\n        /* \"#utility.yul\":2827:2829   */\n      0x40\n        /* \"#utility.yul\":2815:2824   */\n      dup4\n        /* \"#utility.yul\":2806:2813   */\n      dup6\n        /* \"#utility.yul\":2802:2825   */\n      sub\n        /* \"#utility.yul\":2798:2830   */\n      slt\n        /* \"#utility.yul\":2795:2914   */\n      iszero\n      tag_163\n      jumpi\n        /* \"#utility.yul\":2833:2912   */\n      tag_164\n      tag_98\n      jump\t// in\n    tag_164:\n        /* \"#utility.yul\":2795:2914   */\n    tag_163:\n        /* \"#utility.yul\":2953:2954   */\n      0x00\n        /* \"#utility.yul\":2978:3031   */\n      tag_165\n        /* \"#utility.yul\":3023:3030   */\n      dup6\n        /* \"#utility.yul\":3014:3020   */\n      dup3\n        /* \"#utility.yul\":3003:3012   */\n      dup7\n        /* \"#utility.yul\":2999:3021   */\n      add\n        /* \"#utility.yul\":2978:3031   */\n      tag_102\n      jump\t// in\n    tag_165:\n        /* \"#utility.yul\":2968:3031   */\n      swap3\n      pop\n        /* \"#utility.yul\":2924:3041   */\n      pop\n        /* \"#utility.yul\":3080:3082   */\n      0x20\n        /* \"#utility.yul\":3106:3159   */\n      tag_166\n        /* \"#utility.yul\":3151:3158   */\n      dup6\n        /* \"#utility.yul\":3142:3148   */\n      dup3\n        /* \"#utility.yul\":3131:3140   */\n      dup7\n        /* \"#utility.yul\":3127:3149   */\n      add\n        /* \"#utility.yul\":3106:3159   */\n      tag_102\n      jump\t// in\n    tag_166:\n        /* \"#utility.yul\":3096:3159   */\n      swap2\n      pop\n        /* \"#utility.yul\":3051:3169   */\n      pop\n        /* \"#utility.yul\":2702:3176   */\n      swap3\n      pop\n      swap3\n      swap1\n      pop\n      jump\t// out\n        /* \"#utility.yul\":3182:3296   */\n    tag_108:\n        /* \"#utility.yul\":3249:3255   */\n      0x00\n        /* \"#utility.yul\":3283:3288   */\n      dup2\n        /* \"#utility.yul\":3277:3289   */\n      mload\n        /* \"#utility.yul\":3267:3289   */\n      swap1\n      pop\n        /* \"#utility.yul\":3182:3296   */\n      swap2\n      swap1\n      pop\n      jump\t// out\n        /* \"#utility.yul\":3302:3486   */\n    tag_109:\n        /* \"#utility.yul\":3401:3412   */\n      0x00\n        /* \"#utility.yul\":3435:3441   */\n      dup3\n        /* \"#utility.yul\":3430:3433   */\n      dup3\n        /* \"#utility.yul\":3423:3442   */\n      mstore\n        /* \"#utility.yul\":3475:3479   */\n      0x20\n        /* \"#utility.yul\":3470:3473   */\n      dup3\n        /* \"#utility.yul\":3466:3480   */\n      add\n        /* \"#utility.yul\":3451:3480   */\n      swap1\n      pop\n        /* \"#utility.yul\":3302:3486   */\n      swap3\n      swap2\n      pop\n      pop\n      jump\t// out\n        /* \"#utility.yul\":3492:3624   */\n    tag_110:\n        /* \"#utility.yul\":3559:3563   */\n      0x00\n        /* \"#utility.yul\":3582:3585   */\n      dup2\n        /* \"#utility.yul\":3574:3585   */\n      swap1\n      pop\n        /* \"#utility.yul\":3612:3616   */\n      0x20\n        /* \"#utility.yul\":3607:3610   */\n      dup3\n        /* \"#utility.yul\":3603:3617   */\n      add\n        /* \"#utility.yul\":3595:3617   */\n      swap1\n      pop\n        /* \"#utility.yul\":3492:3624   */\n      swap2\n      swap1\n      pop\n      jump\t// out\n        /* \"#utility.yul\":3630:3738   */\n    tag_111:\n        /* \"#utility.yul\":3707:3731   */\n      tag_171\n        /* \"#utility.yul\":3725:3730   */\n      dup2\n        /* \"#utility.yul\":3707:3731   */\n      tag_104\n      jump\t// in\n    tag_171:\n        /* \"#utility.yul\":3702:3705   */\n      dup3\n        /* \"#utility.yul\":3695:3732   */\n      mstore\n        /* \"#utility.yul\":3630:3738   */\n      pop\n      pop\n      jump\t// out\n        /* \"#utility.yul\":3744:3923   */\n    tag_112:\n        /* \"#utility.yul\":3813:3823   */\n      0x00\n        /* \"#utility.yul\":3834:3880   */\n      tag_173\n        /* \"#utility.yul\":3876:3879   */\n      dup4\n        /* \"#utility.yul\":3868:3874   */\n      dup4\n        /* \"#utility.yul\":3834:3880   */\n      tag_111\n      jump\t// in\n    tag_173:\n        /* \"#utility.yul\":3912:3916   */\n      0x20\n        /* \"#utility.yul\":3907:3910   */\n      dup4\n        /* \"#utility.yul\":3903:3917   */\n      add\n        /* \"#utility.yul\":3889:3917   */\n      swap1\n      pop\n        /* \"#utility.yul\":3744:3923   */\n      swap3\n      swap2\n      pop\n      pop\n      jump\t// out\n        /* \"#utility.yul\":3929:4042   */\n    tag_113:\n        /* \"#utility.yul\":3999:4003   */\n      0x00\n        /* \"#utility.yul\":4031:4035   */\n      0x20\n        /* \"#utility.yul\":4026:4029   */\n      dup3\n        /* \"#utility.yul\":4022:4036   */\n      add\n        /* \"#utility.yul\":4014:4036   */\n      swap1\n      pop\n        /* \"#utility.yul\":3929:4042   */\n      swap2\n      swap1\n      pop\n      jump\t// out\n        /* \"#utility.yul\":4078:4810   */\n    tag_114:\n        /* \"#utility.yul\":4197:4200   */\n      0x00\n        /* \"#utility.yul\":4226:4280   */\n      tag_176\n        /* \"#utility.yul\":4274:4279   */\n      dup3\n        /* \"#utility.yul\":4226:4280   */\n      tag_108\n      jump\t// in\n    tag_176:\n        /* \"#utility.yul\":4296:4382   */\n      tag_177\n        /* \"#utility.yul\":4375:4381   */\n      dup2\n        /* \"#utility.yul\":4370:4373   */\n      dup6\n        /* \"#utility.yul\":4296:4382   */\n      tag_109\n      jump\t// in\n    tag_177:\n        /* \"#utility.yul\":4289:4382   */\n      swap4\n      pop\n        /* \"#utility.yul\":4406:4462   */\n      tag_178\n        /* \"#utility.yul\":4456:4461   */\n      dup4\n        /* \"#utility.yul\":4406:4462   */\n      tag_110\n      jump\t// in\n    tag_178:\n        /* \"#utility.yul\":4485:4492   */\n      dup1\n        /* \"#utility.yul\":4516:4517   */\n      0x00\n        /* \"#utility.yul\":4501:4785   */\n    tag_179:\n        /* \"#utility.yul\":4526:4532   */\n      dup4\n        /* \"#utility.yul\":4523:4524   */\n      dup2\n        /* \"#utility.yul\":4520:4533   */\n      lt\n        /* \"#utility.yul\":4501:4785   */\n      iszero\n      tag_181\n      jumpi\n        /* \"#utility.yul\":4602:4608   */\n      dup2\n        /* \"#utility.yul\":4596:4609   */\n      mload\n        /* \"#utility.yul\":4629:4692   */\n      tag_182\n        /* \"#utility.yul\":4688:4691   */\n      dup9\n        /* \"#utility.yul\":4673:4686   */\n      dup3\n        /* \"#utility.yul\":4629:4692   */\n      tag_112\n      jump\t// in\n    tag_182:\n        /* \"#utility.yul\":4622:4692   */\n      swap8\n      pop\n        /* \"#utility.yul\":4715:4775   */\n      tag_183\n        /* \"#utility.yul\":4768:4774   */\n      dup4\n        /* \"#utility.yul\":4715:4775   */\n      tag_113\n      jump\t// in\n    tag_183:\n        /* \"#utility.yul\":4705:4775   */\n      swap3\n      pop\n        /* \"#utility.yul\":4561:4785   */\n      pop\n        /* \"#utility.yul\":4548:4549   */\n      0x01\n        /* \"#utility.yul\":4545:4546   */\n      dup2\n        /* \"#utility.yul\":4541:4550   */\n      add\n        /* \"#utility.yul\":4536:4550   */\n      swap1\n      pop\n        /* \"#utility.yul\":4501:4785   */\n      jump(tag_179)\n    tag_181:\n        /* \"#utility.yul\":4505:4519   */\n      pop\n        /* \"#utility.yul\":4801:4804   */\n      dup6\n        /* \"#utility.yul\":4794:4804   */\n      swap4\n      pop\n        /* \"#utility.yul\":4202:4810   */\n      pop\n      pop\n      pop\n        /* \"#utility.yul\":4078:4810   */\n      swap3\n      swap2\n      pop\n      pop\n      jump\t// out\n        /* \"#utility.yul\":4816:5189   */\n    tag_43:\n        /* \"#utility.yul\":4959:4963   */\n      0x00\n        /* \"#utility.yul\":4997:4999   */\n      0x20\n        /* \"#utility.yul\":4986:4995   */\n      dup3\n        /* \"#utility.yul\":4982:5000   */\n      add\n        /* \"#utility.yul\":4974:5000   */\n      swap1\n      pop\n        /* \"#utility.yul\":5046:5055   */\n      dup2\n        /* \"#utility.yul\":5040:5044   */\n      dup2\n        /* \"#utility.yul\":5036:5056   */\n      sub\n        /* \"#utility.yul\":5032:5033   */\n      0x00\n        /* \"#utility.yul\":5021:5030   */\n      dup4\n        /* \"#utility.yul\":5017:5034   */\n      add\n        /* \"#utility.yul\":5010:5057   */\n      mstore\n        /* \"#utility.yul\":5074:5182   */\n      tag_185\n        /* \"#utility.yul\":5177:5181   */\n      dup2\n        /* \"#utility.yul\":5168:5174   */\n      dup5\n        /* \"#utility.yul\":5074:5182   */\n      tag_114\n      jump\t// in\n    tag_185:\n        /* \"#utility.yul\":5066:5182   */\n      swap1\n      pop\n        /* \"#utility.yul\":4816:5189   */\n      swap3\n      swap2\n      pop\n      pop\n      jump\t// out\n        /* \"#utility.yul\":5195:5313   */\n    tag_115:\n        /* \"#utility.yul\":5282:5306   */\n      tag_187\n        /* \"#utility.yul\":5300:5305   */\n      dup2\n        /* \"#utility.yul\":5282:5306   */\n      tag_104\n      jump\t// in\n    tag_187:\n        /* \"#utility.yul\":5277:5280   */\n      dup3\n        /* \"#utility.yul\":5270:5307   */\n      mstore\n        /* \"#utility.yul\":5195:5313   */\n      pop\n      pop\n      jump\t// out\n        /* \"#utility.yul\":5319:5541   */\n    tag_51:\n        /* \"#utility.yul\":5412:5416   */\n      0x00\n        /* \"#utility.yul\":5450:5452   */\n      0x20\n        /* \"#utility.yul\":5439:5448   */\n      dup3\n        /* \"#utility.yul\":5435:5453   */\n      add\n        /* \"#utility.yul\":5427:5453   */\n      swap1\n      pop\n        /* \"#utility.yul\":5463:5534   */\n      tag_189\n        /* \"#utility.yul\":5531:5532   */\n      0x00\n        /* \"#utility.yul\":5520:5529   */\n      dup4\n        /* \"#utility.yul\":5516:5533   */\n      add\n        /* \"#utility.yul\":5507:5513   */\n      dup5\n        /* \"#utility.yul\":5463:5534   */\n      tag_115\n      jump\t// in\n    tag_189:\n        /* \"#utility.yul\":5319:5541   */\n      swap3\n      swap2\n      pop\n      pop\n      jump\t// out\n        /* \"#utility.yul\":5547:5716   */\n    tag_116:\n        /* \"#utility.yul\":5631:5642   */\n      0x00\n        /* \"#utility.yul\":5665:5671   */\n      dup3\n        /* \"#utility.yul\":5660:5663   */\n      dup3\n        /* \"#utility.yul\":5653:5672   */\n      mstore\n        /* \"#utility.yul\":5705:5709   */\n      0x20\n        /* \"#utility.yul\":5700:5703   */\n      dup3\n        /* \"#utility.yul\":5696:5710   */\n      add\n        /* \"#utility.yul\":5681:5710   */\n      swap1\n      pop\n        /* \"#utility.yul\":5547:5716   */\n      swap3\n      swap2\n      pop\n      pop\n      jump\t// out\n        /* \"#utility.yul\":5722:5882   */\n    tag_117:\n        /* \"#utility.yul\":5862:5874   */\n      0x4e6f7420636c69656e7400000000000000000000000000000000000000000000\n        /* \"#utility.yul\":5858:5859   */\n      0x00\n        /* \"#utility.yul\":5850:5856   */\n      dup3\n        /* \"#utility.yul\":5846:5860   */\n      add\n        /* \"#utility.yul\":5839:5875   */\n      mstore\n        /* \"#utility.yul\":5722:5882   */\n      pop\n      jump\t// out\n        /* \"#utility.yul\":5888:6254   */\n    tag_118:\n        /* \"#utility.yul\":6030:6033   */\n      0x00\n        /* \"#utility.yul\":6051:6118   */\n      tag_193\n        /* \"#utility.yul\":6115:6117   */\n      0x0a\n        /* \"#utility.yul\":6110:6113   */\n      dup4\n        /* \"#utility.yul\":6051:6118   */\n      tag_116\n      jump\t// in\n    tag_193:\n        /* \"#utility.yul\":6044:6118   */\n      swap2\n      pop\n        /* \"#utility.yul\":6127:6220   */\n      tag_194\n        /* \"#utility.yul\":6216:6219   */\n      dup3\n        /* \"#utility.yul\":6127:6220   */\n      tag_117\n      jump\t// in\n    tag_194:\n        /* \"#utility.yul\":6245:6247   */\n      0x20\n        /* \"#utility.yul\":6240:6243   */\n      dup3\n        /* \"#utility.yul\":6236:6248   */\n      add\n        /* \"#utility.yul\":6229:6248   */\n      swap1\n      pop\n        /* \"#utility.yul\":5888:6254   */\n      swap2\n      swap1\n      pop\n      jump\t// out\n        /* \"#utility.yul\":6260:6679   */\n    tag_55:\n        /* \"#utility.yul\":6426:6430   */\n      0x00\n        /* \"#utility.yul\":6464:6466   */\n      0x20\n        /* \"#utility.yul\":6453:6462   */\n      dup3\n        /* \"#utility.yul\":6449:6467   */\n      add\n        /* \"#utility.yul\":6441:6467   */\n      swap1\n      pop\n        /* \"#utility.yul\":6513:6522   */\n      dup2\n        /* \"#utility.yul\":6507:6511   */\n      dup2\n        /* \"#utility.yul\":6503:6523   */\n      sub\n        /* \"#utility.yul\":6499:6500   */\n      0x00\n        /* \"#utility.yul\":6488:6497   */\n      dup4\n        /* \"#utility.yul\":6484:6501   */\n      add\n        /* \"#utility.yul\":6477:6524   */\n      mstore\n        /* \"#utility.yul\":6541:6672   */\n      tag_196\n        /* \"#utility.yul\":6667:6671   */\n      dup2\n        /* \"#utility.yul\":6541:6672   */\n      tag_118\n      jump\t// in\n    tag_196:\n        /* \"#utility.yul\":6533:6672   */\n      swap1\n      pop\n        /* \"#utility.yul\":6260:6679   */\n      swap2\n      swap1\n      pop\n      jump\t// out\n        /* \"#utility.yul\":6685:6853   */\n    tag_119:\n        /* \"#utility.yul\":6825:6845   */\n      0x4e6f206974656d7320746f2072657475726e0000000000000000000000000000\n        /* \"#utility.yul\":6821:6822   */\n      0x00\n        /* \"#utility.yul\":6813:6819   */\n      dup3\n        /* \"#utility.yul\":6809:6823   */\n      add\n        /* \"#utility.yul\":6802:6846   */\n      mstore\n        /* \"#utility.yul\":6685:6853   */\n      pop\n      jump\t// out\n        /* \"#utility.yul\":6859:7225   */\n    tag_120:\n        /* \"#utility.yul\":7001:7004   */\n      0x00\n        /* \"#utility.yul\":7022:7089   */\n      tag_199\n        /* \"#utility.yul\":7086:7088   */\n      0x12\n        /* \"#utility.yul\":7081:7084   */\n      dup4\n        /* \"#utility.yul\":7022:7089   */\n      tag_116\n      jump\t// in\n    tag_199:\n        /* \"#utility.yul\":7015:7089   */\n      swap2\n      pop\n        /* \"#utility.yul\":7098:7191   */\n      tag_200\n        /* \"#utility.yul\":7187:7190   */\n      dup3\n        /* \"#utility.yul\":7098:7191   */\n      tag_119\n      jump\t// in\n    tag_200:\n        /* \"#utility.yul\":7216:7218   */\n      0x20\n        /* \"#utility.yul\":7211:7214   */\n      dup3\n        /* \"#utility.yul\":7207:7219   */\n      add\n        /* \"#utility.yul\":7200:7219   */\n      swap1\n      pop\n        /* \"#utility.yul\":6859:7225   */\n      swap2\n      swap1\n      pop\n      jump\t// out\n        /* \"#utility.yul\":7231:7650   */\n    tag_58:\n        /* \"#utility.yul\":7397:7401   */\n      0x00\n        /* \"#utility.yul\":7435:7437   */\n      0x20\n        /* \"#utility.yul\":7424:7433   */\n      dup3\n        /* \"#utility.yul\":7420:7438   */\n      add\n        /* \"#utility.yul\":7412:7438   */\n      swap1\n      pop\n        /* \"#utility.yul\":7484:7493   */\n      dup2\n        /* \"#utility.yul\":7478:7482   */\n      dup2\n        /* \"#utility.yul\":7474:7494   */\n      sub\n        /* \"#utility.yul\":7470:7471   */\n      0x00\n        /* \"#utility.yul\":7459:7468   */\n      dup4\n        /* \"#utility.yul\":7455:7472   */\n      add\n        /* \"#utility.yul\":7448:7495   */\n      mstore\n        /* \"#utility.yul\":7512:7643   */\n      tag_202\n        /* \"#utility.yul\":7638:7642   */\n      dup2\n        /* \"#utility.yul\":7512:7643   */\n      tag_120\n      jump\t// in\n    tag_202:\n        /* \"#utility.yul\":7504:7643   */\n      swap1\n      pop\n        /* \"#utility.yul\":7231:7650   */\n      swap2\n      swap1\n      pop\n      jump\t// out\n        /* \"#utility.yul\":7656:7836   */\n    tag_121:\n        /* \"#utility.yul\":7704:7781   */\n      0x4e487b7100000000000000000000000000000000000000000000000000000000\n        /* \"#utility.yul\":7701:7702   */\n      0x00\n        /* \"#utility.yul\":7694:7782   */\n      mstore\n        /* \"#utility.yul\":7801:7805   */\n      0x11\n        /* \"#utility.yul\":7798:7799   */\n      0x04\n        /* \"#utility.yul\":7791:7806   */\n      mstore\n        /* \"#utility.yul\":7825:7829   */\n      0x24\n        /* \"#utility.yul\":7822:7823   */\n      0x00\n        /* \"#utility.yul\":7815:7830   */\n      revert\n        /* \"#utility.yul\":7842:8033   */\n    tag_60:\n        /* \"#utility.yul\":7882:7886   */\n      0x00\n        /* \"#utility.yul\":7902:7922   */\n      tag_205\n        /* \"#utility.yul\":7920:7921   */\n      dup3\n        /* \"#utility.yul\":7902:7922   */\n      tag_100\n      jump\t// in\n    tag_205:\n        /* \"#utility.yul\":7897:7922   */\n      swap2\n      pop\n        /* \"#utility.yul\":7936:7956   */\n      tag_206\n        /* \"#utility.yul\":7954:7955   */\n      dup4\n        /* \"#utility.yul\":7936:7956   */\n      tag_100\n      jump\t// in\n    tag_206:\n        /* \"#utility.yul\":7931:7956   */\n      swap3\n      pop\n        /* \"#utility.yul\":7975:7976   */\n      dup3\n        /* \"#utility.yul\":7972:7973   */\n      dup3\n        /* \"#utility.yul\":7969:7977   */\n      lt\n        /* \"#utility.yul\":7966:8000   */\n      iszero\n      tag_207\n      jumpi\n        /* \"#utility.yul\":7980:7998   */\n      tag_208\n      tag_121\n      jump\t// in\n    tag_208:\n        /* \"#utility.yul\":7966:8000   */\n    tag_207:\n        /* \"#utility.yul\":8025:8026   */\n      dup3\n        /* \"#utility.yul\":8022:8023   */\n      dup3\n        /* \"#utility.yul\":8018:8027   */\n      sub\n        /* \"#utility.yul\":8010:8027   */\n      swap1\n      pop\n        /* \"#utility.yul\":7842:8033   */\n      swap3\n      swap2\n      pop\n      pop\n      jump\t// out\n        /* \"#utility.yul\":8039:8272   */\n    tag_63:\n        /* \"#utility.yul\":8078:8081   */\n      0x00\n        /* \"#utility.yul\":8101:8125   */\n      tag_210\n        /* \"#utility.yul\":8119:8124   */\n      dup3\n        /* \"#utility.yul\":8101:8125   */\n      tag_100\n      jump\t// in\n    tag_210:\n        /* \"#utility.yul\":8092:8125   */\n      swap2\n      pop\n        /* \"#utility.yul\":8147:8213   */\n      0xffffffffffffffffffffffffffffffffffffffffffffffffffffffffffffffff\n        /* \"#utility.yul\":8140:8145   */\n      dup3\n        /* \"#utility.yul\":8137:8214   */\n      sub\n        /* \"#utility.yul\":8134:8237   */\n      tag_211\n      jumpi\n        /* \"#utility.yul\":8217:8235   */\n      tag_212\n      tag_121\n      jump\t// in\n    tag_212:\n        /* \"#utility.yul\":8134:8237   */\n    tag_211:\n        /* \"#utility.yul\":8264:8265   */\n      0x01\n        /* \"#utility.yul\":8257:8262   */\n      dup3\n        /* \"#utility.yul\":8253:8266   */\n      add\n        /* \"#utility.yul\":8246:8266   */\n      swap1\n      pop\n        /* \"#utility.yul\":8039:8272   */\n      swap2\n      swap1\n      pop\n      jump\t// out\n        /* \"#utility.yul\":8278:8437   */\n    tag_122:\n        /* \"#utility.yul\":8418:8429   */\n      0x4e6f74206f776e65720000000000000000000000000000000000000000000000\n        /* \"#utility.yul\":8414:8415   */\n      0x00\n        /* \"#utility.yul\":8406:8412   */\n      dup3\n        /* \"#utility.yul\":8402:8416   */\n      add\n        /* \"#utility.yul\":8395:8430   */\n      mstore\n        /* \"#utility.yul\":8278:8437   */\n      pop\n      jump\t// out\n        /* \"#utility.yul\":8443:8808   */\n    tag_123:\n        /* \"#utility.yul\":8585:8588   */\n      0x00\n        /* \"#utility.yul\":8606:8672   */\n      tag_215\n        /* \"#utility.yul\":8670:8671   */\n      0x09\n        /* \"#utility.yul\":8665:8668   */\n      dup4\n        /* \"#utility.yul\":8606:8672   */\n      tag_116\n      jump\t// in\n    tag_215:\n        /* \"#utility.yul\":8599:8672   */\n      swap2\n      pop\n        /* \"#utility.yul\":8681:8774   */\n      tag_216\n        /* \"#utility.yul\":8770:8773   */\n      dup3\n        /* \"#utility.yul\":8681:8774   */\n      tag_122\n      jump\t// in\n    tag_216:\n        /* \"#utility.yul\":8799:8801   */\n      0x20\n        /* \"#utility.yul\":8794:8797   */\n      dup3\n        /* \"#utility.yul\":8790:8802   */\n      add\n        /* \"#utility.yul\":8783:8802   */\n      swap1\n      pop\n        /* \"#utility.yul\":8443:8808   */\n      swap2\n      swap1\n      pop\n      jump\t// out\n        /* \"#utility.yul\":8814:9233   */\n    tag_68:\n        /* \"#utility.yul\":8980:8984   */\n      0x00\n        /* \"#utility.yul\":9018:9020   */\n      0x20\n        /* \"#utility.yul\":9007:9016   */\n      dup3\n        /* \"#utility.yul\":9003:9021   */\n      add\n        /* \"#utility.yul\":8995:9021   */\n      swap1\n      pop\n        /* \"#utility.yul\":9067:9076   */\n      dup2\n        /* \"#utility.yul\":9061:9065   */\n      dup2\n        /* \"#utility.yul\":9057:9077   */\n      sub\n        /* \"#utility.yul\":9053:9054   */\n      0x00\n        /* \"#utility.yul\":9042:9051   */\n      dup4\n        /* \"#utility.yul\":9038:9055   */\n      add\n        /* \"#utility.yul\":9031:9078   */\n      mstore\n        /* \"#utility.yul\":9095:9226   */\n      tag_218\n        /* \"#utility.yul\":9221:9225   */\n      dup2\n        /* \"#utility.yul\":9095:9226   */\n      tag_123\n      jump\t// in\n    tag_218:\n        /* \"#utility.yul\":9087:9226   */\n      swap1\n      pop\n        /* \"#utility.yul\":8814:9233   */\n      swap2\n      swap1\n      pop\n      jump\t// out\n        /* \"#utility.yul\":9239:9544   */\n    tag_70:\n        /* \"#utility.yul\":9279:9282   */\n      0x00\n        /* \"#utility.yul\":9298:9318   */\n      tag_220\n        /* \"#utility.yul\":9316:9317   */\n      dup3\n        /* \"#utility.yul\":9298:9318   */\n      tag_100\n      jump\t// in\n    tag_220:\n        /* \"#utility.yul\":9293:9318   */\n      swap2\n      pop\n        /* \"#utility.yul\":9332:9352   */\n      tag_221\n        /* \"#utility.yul\":9350:9351   */\n      dup4\n        /* \"#utility.yul\":9332:9352   */\n      tag_100\n      jump\t// in\n    tag_221:\n        /* \"#utility.yul\":9327:9352   */\n      swap3\n      pop\n        /* \"#utility.yul\":9486:9487   */\n      dup3\n        /* \"#utility.yul\":9418:9484   */\n      0xffffffffffffffffffffffffffffffffffffffffffffffffffffffffffffffff\n        /* \"#utility.yul\":9414:9488   */\n      sub\n        /* \"#utility.yul\":9411:9412   */\n      dup3\n        /* \"#utility.yul\":9408:9489   */\n      gt\n        /* \"#utility.yul\":9405:9512   */\n      iszero\n      tag_222\n      jumpi\n        /* \"#utility.yul\":9492:9510   */\n      tag_223\n      tag_121\n      jump\t// in\n    tag_223:\n        /* \"#utility.yul\":9405:9512   */\n    tag_222:\n        /* \"#utility.yul\":9536:9537   */\n      dup3\n        /* \"#utility.yul\":9533:9534   */\n      dup3\n        /* \"#utility.yul\":9529:9538   */\n      add\n        /* \"#utility.yul\":9522:9538   */\n      swap1\n      pop\n        /* \"#utility.yul\":9239:9544   */\n      swap3\n      swap2\n      pop\n      pop\n      jump\t// out\n        /* \"#utility.yul\":9550:9730   */\n    tag_75:\n        /* \"#utility.yul\":9598:9675   */\n      0x4e487b7100000000000000000000000000000000000000000000000000000000\n        /* \"#utility.yul\":9595:9596   */\n      0x00\n        /* \"#utility.yul\":9588:9676   */\n      mstore\n        /* \"#utility.yul\":9695:9699   */\n      0x41\n        /* \"#utility.yul\":9692:9693   */\n      0x04\n        /* \"#utility.yul\":9685:9700   */\n      mstore\n        /* \"#utility.yul\":9719:9723   */\n      0x24\n        /* \"#utility.yul\":9716:9717   */\n      0x00\n        /* \"#utility.yul\":9709:9724   */\n      revert\n        /* \"#utility.yul\":9736:9916   */\n    tag_82:\n        /* \"#utility.yul\":9784:9861   */\n      0x4e487b7100000000000000000000000000000000000000000000000000000000\n        /* \"#utility.yul\":9781:9782   */\n      0x00\n        /* \"#utility.yul\":9774:9862   */\n      mstore\n        /* \"#utility.yul\":9881:9885   */\n      0x32\n        /* \"#utility.yul\":9878:9879   */\n      0x04\n        /* \"#utility.yul\":9871:9886   */\n      mstore\n        /* \"#utility.yul\":9905:9909   */\n      0x24\n        /* \"#utility.yul\":9902:9903   */\n      0x00\n        /* \"#utility.yul\":9895:9910   */\n      revert\n        /* \"#utility.yul\":9922:10103   */\n    tag_124:\n        /* \"#utility.yul\":10062:10095   */\n      0x436c69656e7420616c72656164792068617320746869732070726f6475637400\n        /* \"#utility.yul\":10058:10059   */\n      0x00\n        /* \"#utility.yul\":10050:10056   */\n      dup3\n        /* \"#utility.yul\":10046:10060   */\n      add\n        /* \"#utility.yul\":10039:10096   */\n      mstore\n        /* \"#utility.yul\":9922:10103   */\n      pop\n      jump\t// out\n        /* \"#utility.yul\":10109:10475   */\n    tag_125:\n        /* \"#utility.yul\":10251:10254   */\n      0x00\n        /* \"#utility.yul\":10272:10339   */\n      tag_228\n        /* \"#utility.yul\":10336:10338   */\n      0x1f\n        /* \"#utility.yul\":10331:10334   */\n      dup4\n        /* \"#utility.yul\":10272:10339   */\n      tag_116\n      jump\t// in\n    tag_228:\n        /* \"#utility.yul\":10265:10339   */\n      swap2\n      pop\n        /* \"#utility.yul\":10348:10441   */\n      tag_229\n        /* \"#utility.yul\":10437:10440   */\n      dup3\n        /* \"#utility.yul\":10348:10441   */\n      tag_124\n      jump\t// in\n    tag_229:\n        /* \"#utility.yul\":10466:10468   */\n      0x20\n        /* \"#utility.yul\":10461:10464   */\n      dup3\n        /* \"#utility.yul\":10457:10469   */\n      add\n        /* \"#utility.yul\":10450:10469   */\n      swap1\n      pop\n        /* \"#utility.yul\":10109:10475   */\n      swap2\n      swap1\n      pop\n      jump\t// out\n        /* \"#utility.yul\":10481:10900   */\n    tag_89:\n        /* \"#utility.yul\":10647:10651   */\n      0x00\n        /* \"#utility.yul\":10685:10687   */\n      0x20\n        /* \"#utility.yul\":10674:10683   */\n      dup3\n        /* \"#utility.yul\":10670:10688   */\n      add\n        /* \"#utility.yul\":10662:10688   */\n      swap1\n      pop\n        /* \"#utility.yul\":10734:10743   */\n      dup2\n        /* \"#utility.yul\":10728:10732   */\n      dup2\n        /* \"#utility.yul\":10724:10744   */\n      sub\n        /* \"#utility.yul\":10720:10721   */\n      0x00\n        /* \"#utility.yul\":10709:10718   */\n      dup4\n        /* \"#utility.yul\":10705:10722   */\n      add\n        /* \"#utility.yul\":10698:10745   */\n      mstore\n        /* \"#utility.yul\":10762:10893   */\n      tag_231\n        /* \"#utility.yul\":10888:10892   */\n      dup2\n        /* \"#utility.yul\":10762:10893   */\n      tag_125\n      jump\t// in\n    tag_231:\n        /* \"#utility.yul\":10754:10893   */\n      swap1\n      pop\n        /* \"#utility.yul\":10481:10900   */\n      swap2\n      swap1\n      pop\n      jump\t// out\n        /* \"#utility.yul\":10906:11072   */\n    tag_126:\n        /* \"#utility.yul\":11046:11064   */\n      0x4e6f206974656d7320746f2073656c6c00000000000000000000000000000000\n        /* \"#utility.yul\":11042:11043   */\n      0x00\n        /* \"#utility.yul\":11034:11040   */\n      dup3\n        /* \"#utility.yul\":11030:11044   */\n      add\n        /* \"#utility.yul\":11023:11065   */\n      mstore\n        /* \"#utility.yul\":10906:11072   */\n      pop\n      jump\t// out\n        /* \"#utility.yul\":11078:11444   */\n    tag_127:\n        /* \"#utility.yul\":11220:11223   */\n      0x00\n        /* \"#utility.yul\":11241:11308   */\n      tag_234\n        /* \"#utility.yul\":11305:11307   */\n      0x10\n        /* \"#utility.yul\":11300:11303   */\n      dup4\n        /* \"#utility.yul\":11241:11308   */\n      tag_116\n      jump\t// in\n    tag_234:\n        /* \"#utility.yul\":11234:11308   */\n      swap2\n      pop\n        /* \"#utility.yul\":11317:11410   */\n      tag_235\n        /* \"#utility.yul\":11406:11409   */\n      dup3\n        /* \"#utility.yul\":11317:11410   */\n      tag_126\n      jump\t// in\n    tag_235:\n        /* \"#utility.yul\":11435:11437   */\n      0x20\n        /* \"#utility.yul\":11430:11433   */\n      dup3\n        /* \"#utility.yul\":11426:11438   */\n      add\n        /* \"#utility.yul\":11419:11438   */\n      swap1\n      pop\n        /* \"#utility.yul\":11078:11444   */\n      swap2\n      swap1\n      pop\n      jump\t// out\n        /* \"#utility.yul\":11450:11869   */\n    tag_92:\n        /* \"#utility.yul\":11616:11620   */\n      0x00\n        /* \"#utility.yul\":11654:11656   */\n      0x20\n        /* \"#utility.yul\":11643:11652   */\n      dup3\n        /* \"#utility.yul\":11639:11657   */\n      add\n        /* \"#utility.yul\":11631:11657   */\n      swap1\n      pop\n        /* \"#utility.yul\":11703:11712   */\n      dup2\n        /* \"#utility.yul\":11697:11701   */\n      dup2\n        /* \"#utility.yul\":11693:11713   */\n      sub\n        /* \"#utility.yul\":11689:11690   */\n      0x00\n        /* \"#utility.yul\":11678:11687   */\n      dup4\n        /* \"#utility.yul\":11674:11691   */\n      add\n        /* \"#utility.yul\":11667:11714   */\n      mstore\n        /* \"#utility.yul\":11731:11862   */\n      tag_237\n        /* \"#utility.yul\":11857:11861   */\n      dup2\n        /* \"#utility.yul\":11731:11862   */\n      tag_127\n      jump\t// in\n    tag_237:\n        /* \"#utility.yul\":11723:11862   */\n      swap1\n      pop\n        /* \"#utility.yul\":11450:11869   */\n      swap2\n      swap1\n      pop\n      jump\t// out\n        /* \"#utility.yul\":11875:12046   */\n    tag_95:\n        /* \"#utility.yul\":11914:11917   */\n      0x00\n        /* \"#utility.yul\":11937:11961   */\n      tag_239\n        /* \"#utility.yul\":11955:11960   */\n      dup3\n        /* \"#utility.yul\":11937:11961   */\n      tag_100\n      jump\t// in\n    tag_239:\n        /* \"#utility.yul\":11928:11961   */\n      swap2\n      pop\n        /* \"#utility.yul\":11983:11987   */\n      0x00\n        /* \"#utility.yul\":11976:11981   */\n      dup3\n        /* \"#utility.yul\":11973:11988   */\n      sub\n        /* \"#utility.yul\":11970:12011   */\n      tag_240\n      jumpi\n        /* \"#utility.yul\":11991:12009   */\n      tag_241\n      tag_121\n      jump\t// in\n    tag_241:\n        /* \"#utility.yul\":11970:12011   */\n    tag_240:\n        /* \"#utility.yul\":12038:12039   */\n      0x01\n        /* \"#utility.yul\":12031:12036   */\n      dup3\n        /* \"#utility.yul\":12027:12040   */\n      sub\n        /* \"#utility.yul\":12020:12040   */\n      swap1\n      pop\n        /* \"#utility.yul\":11875:12046   */\n      swap2\n      swap1\n      pop\n      jump\t// out\n\n    auxdata: 0xa26469706673582212204372d51201d9445c769145b558c8316af890c362f341e2da5ceacffde479d0c264736f6c634300080f0033\n}\n",
				"bytecode": {
					"linkReferences": {},
					"object": "6080604052600060045534801561001557600080fd5b50336000806101000a81548173ffffffffffffffffffffffffffffffffffffffff021916908373ffffffffffffffffffffffffffffffffffffffff160217905550611023806100656000396000f3fe608060405234801561001057600080fd5b50600436106100935760003560e01c8063a4ddcd3f11610066578063a4ddcd3f14610131578063bfb231d214610161578063e20ee26914610191578063e7fb74c7146101af578063f88af21d146101cb57610093565b8063223ed1dd146100985780632ad2ba7c146100b45780633e909fc5146100e5578063a212523214610115575b600080fd5b6100b260048036038101906100ad91906109d0565b6101fb565b005b6100ce60048036038101906100c99190610a5b565b610415565b6040516100dc929190610aaa565b60405180910390f35b6100ff60048036038101906100fa91906109d0565b610446565b60405161010c9190610ad3565b60405180910390f35b61012f600480360381019061012a9190610aee565b610463565b005b61014b60048036038101906101469190610a5b565b61051f565b6040516101589190610ad3565b60405180910390f35b61017b600480360381019061017691906109d0565b61057d565b6040516101889190610ad3565b60405180910390f35b610199610595565b6040516101a69190610bec565b60405180910390f35b6101c960048036038101906101c491906109d0565b61068f565b005b6101e560048036038101906101e091906109d0565b610962565b6040516101f29190610c1d565b60405180910390f35b60008054906101000a900473ffffffffffffffffffffffffffffffffffffffff1673ffffffffffffffffffffffffffffffffffffffff163373ffffffffffffffffffffffffffffffffffffffff1603610289576040517f08c379a000000000000000000000000000000000000000000000000000000000815260040161028090610c95565b60405180910390fd5b6000600260003373ffffffffffffffffffffffffffffffffffffffff1673ffffffffffffffffffffffffffffffffffffffff1681526020019081526020016000206000838152602001908152602001600020600001541161031f576040517f08c379a000000000000000000000000000000000000000000000000000000000815260040161031690610d01565b60405180910390fd5b6064600260003373ffffffffffffffffffffffffffffffffffffffff1673ffffffffffffffffffffffffffffffffffffffff168152602001908152602001600020600083815260200190815260200160002060010154436103809190610d50565b1161041257600260003373ffffffffffffffffffffffffffffffffffffffff1673ffffffffffffffffffffffffffffffffffffffff16815260200190815260200160002060008281526020019081526020016000206000808201600090556001820160009055505060016000828152602001908152602001600020600081548092919061040c90610d84565b91905055505b50565b6002602052816000526040600020602052806000526040600020600091509150508060000154908060010154905082565b600060016000838152602001908152602001600020549050919050565b60008054906101000a900473ffffffffffffffffffffffffffffffffffffffff1673ffffffffffffffffffffffffffffffffffffffff163373ffffffffffffffffffffffffffffffffffffffff16146104f1576040517f08c379a00000000000000000000000000000000000000000000000000000000081526004016104e890610e18565b60405180910390fd5b806001600084815260200190815260200160002060008282546105149190610e38565b925050819055505050565b6000600260008473ffffffffffffffffffffffffffffffffffffffff1673ffffffffffffffffffffffffffffffffffffffff168152602001908152602001600020600083815260200190815260200160002060000154905092915050565b60016020528060005260406000206000915090505481565b6060600060045467ffffffffffffffff8111156105b5576105b4610e8e565b5b6040519080825280602002602001820160405280156105e35781602001602082028036833780820191505090505b50905060005b600454811015610687576003600082815260200190815260200160002060009054906101000a900473ffffffffffffffffffffffffffffffffffffffff1682828151811061063a57610639610ebd565b5b602002602001019073ffffffffffffffffffffffffffffffffffffffff16908173ffffffffffffffffffffffffffffffffffffffff1681525050808061067f90610d84565b9150506105e9565b508091505090565b60008054906101000a900473ffffffffffffffffffffffffffffffffffffffff1673ffffffffffffffffffffffffffffffffffffffff163373ffffffffffffffffffffffffffffffffffffffff160361071d576040517f08c379a000000000000000000000000000000000000000000000000000000000815260040161071490610c95565b60405180910390fd5b6000600260003373ffffffffffffffffffffffffffffffffffffffff1673ffffffffffffffffffffffffffffffffffffffff168152602001908152602001600020600083815260200190815260200160002060000154146107b3576040517f08c379a00000000000000000000000000000000000000000000000000000000081526004016107aa90610f38565b60405180910390fd5b6000600160008381526020019081526020016000205411610809576040517f08c379a000000000000000000000000000000000000000000000000000000000815260040161080090610fa4565b60405180910390fd5b600260003373ffffffffffffffffffffffffffffffffffffffff1673ffffffffffffffffffffffffffffffffffffffff1681526020019081526020016000206000828152602001908152602001600020600001600081548092919061086d90610d84565b919050555043600260003373ffffffffffffffffffffffffffffffffffffffff1673ffffffffffffffffffffffffffffffffffffffff1681526020019081526020016000206000838152602001908152602001600020600101819055506001600082815260200190815260200160002060008154809291906108ee90610fc4565b91905055503360036000600454815260200190815260200160002060006101000a81548173ffffffffffffffffffffffffffffffffffffffff021916908373ffffffffffffffffffffffffffffffffffffffff1602179055506004600081548092919061095a90610d84565b919050555050565b60036020528060005260406000206000915054906101000a900473ffffffffffffffffffffffffffffffffffffffff1681565b600080fd5b6000819050919050565b6109ad8161099a565b81146109b857600080fd5b50565b6000813590506109ca816109a4565b92915050565b6000602082840312156109e6576109e5610995565b5b60006109f4848285016109bb565b91505092915050565b600073ffffffffffffffffffffffffffffffffffffffff82169050919050565b6000610a28826109fd565b9050919050565b610a3881610a1d565b8114610a4357600080fd5b50565b600081359050610a5581610a2f565b92915050565b60008060408385031215610a7257610a71610995565b5b6000610a8085828601610a46565b9250506020610a91858286016109bb565b9150509250929050565b610aa48161099a565b82525050565b6000604082019050610abf6000830185610a9b565b610acc6020830184610a9b565b9392505050565b6000602082019050610ae86000830184610a9b565b92915050565b60008060408385031215610b0557610b04610995565b5b6000610b13858286016109bb565b9250506020610b24858286016109bb565b9150509250929050565b600081519050919050565b600082825260208201905092915050565b6000819050602082019050919050565b610b6381610a1d565b82525050565b6000610b758383610b5a565b60208301905092915050565b6000602082019050919050565b6000610b9982610b2e565b610ba38185610b39565b9350610bae83610b4a565b8060005b83811015610bdf578151610bc68882610b69565b9750610bd183610b81565b925050600181019050610bb2565b5085935050505092915050565b60006020820190508181036000830152610c068184610b8e565b905092915050565b610c1781610a1d565b82525050565b6000602082019050610c326000830184610c0e565b92915050565b600082825260208201905092915050565b7f4e6f7420636c69656e7400000000000000000000000000000000000000000000600082015250565b6000610c7f600a83610c38565b9150610c8a82610c49565b602082019050919050565b60006020820190508181036000830152610cae81610c72565b9050919050565b7f4e6f206974656d7320746f2072657475726e0000000000000000000000000000600082015250565b6000610ceb601283610c38565b9150610cf682610cb5565b602082019050919050565b60006020820190508181036000830152610d1a81610cde565b9050919050565b7f4e487b7100000000000000000000000000000000000000000000000000000000600052601160045260246000fd5b6000610d5b8261099a565b9150610d668361099a565b925082821015610d7957610d78610d21565b5b828203905092915050565b6000610d8f8261099a565b91507fffffffffffffffffffffffffffffffffffffffffffffffffffffffffffffffff8203610dc157610dc0610d21565b5b600182019050919050565b7f4e6f74206f776e65720000000000000000000000000000000000000000000000600082015250565b6000610e02600983610c38565b9150610e0d82610dcc565b602082019050919050565b60006020820190508181036000830152610e3181610df5565b9050919050565b6000610e438261099a565b9150610e4e8361099a565b9250827fffffffffffffffffffffffffffffffffffffffffffffffffffffffffffffffff03821115610e8357610e82610d21565b5b828201905092915050565b7f4e487b7100000000000000000000000000000000000000000000000000000000600052604160045260246000fd5b7f4e487b7100000000000000000000000000000000000000000000000000000000600052603260045260246000fd5b7f436c69656e7420616c72656164792068617320746869732070726f6475637400600082015250565b6000610f22601f83610c38565b9150610f2d82610eec565b602082019050919050565b60006020820190508181036000830152610f5181610f15565b9050919050565b7f4e6f206974656d7320746f2073656c6c00000000000000000000000000000000600082015250565b6000610f8e601083610c38565b9150610f9982610f58565b602082019050919050565b60006020820190508181036000830152610fbd81610f81565b9050919050565b6000610fcf8261099a565b915060008203610fe257610fe1610d21565b5b60018203905091905056fea26469706673582212204372d51201d9445c769145b558c8316af890c362f341e2da5ceacffde479d0c264736f6c634300080f0033",
					"opcodes": "PUSH1 0x80 PUSH1 0x40 MSTORE PUSH1 0x0 PUSH1 0x4 SSTORE CALLVALUE DUP1 ISZERO PUSH2 0x15 JUMPI PUSH1 0x0 DUP1 REVERT JUMPDEST POP CALLER PUSH1 0x0 DUP1 PUSH2 0x100 EXP DUP2 SLOAD DUP2 PUSH20 0xFFFFFFFFFFFFFFFFFFFFFFFFFFFFFFFFFFFFFFFF MUL NOT AND SWAP1 DUP4 PUSH20 0xFFFFFFFFFFFFFFFFFFFFFFFFFFFFFFFFFFFFFFFF AND MUL OR SWAP1 SSTORE POP PUSH2 0x1023 DUP1 PUSH2 0x65 PUSH1 0x0 CODECOPY PUSH1 0x0 RETURN INVALID PUSH1 0x80 PUSH1 0x40 MSTORE CALLVALUE DUP1 ISZERO PUSH2 0x10 JUMPI PUSH1 0x0 DUP1 REVERT JUMPDEST POP PUSH1 0x4 CALLDATASIZE LT PUSH2 0x93 JUMPI PUSH1 0x0 CALLDATALOAD PUSH1 0xE0 SHR DUP1 PUSH4 0xA4DDCD3F GT PUSH2 0x66 JUMPI DUP1 PUSH4 0xA4DDCD3F EQ PUSH2 0x131 JUMPI DUP1 PUSH4 0xBFB231D2 EQ PUSH2 0x161 JUMPI DUP1 PUSH4 0xE20EE269 EQ PUSH2 0x191 JUMPI DUP1 PUSH4 0xE7FB74C7 EQ PUSH2 0x1AF JUMPI DUP1 PUSH4 0xF88AF21D EQ PUSH2 0x1CB JUMPI PUSH2 0x93 JUMP JUMPDEST DUP1 PUSH4 0x223ED1DD EQ PUSH2 0x98 JUMPI DUP1 PUSH4 0x2AD2BA7C EQ PUSH2 0xB4 JUMPI DUP1 PUSH4 0x3E909FC5 EQ PUSH2 0xE5 JUMPI DUP1 PUSH4 0xA2125232 EQ PUSH2 0x115 JUMPI JUMPDEST PUSH1 0x0 DUP1 REVERT JUMPDEST PUSH2 0xB2 PUSH1 0x4 DUP1 CALLDATASIZE SUB DUP2 ADD SWAP1 PUSH2 0xAD SWAP2 SWAP1 PUSH2 0x9D0 JUMP JUMPDEST PUSH2 0x1FB JUMP JUMPDEST STOP JUMPDEST PUSH2 0xCE PUSH1 0x4 DUP1 CALLDATASIZE SUB DUP2 ADD SWAP1 PUSH2 0xC9 SWAP2 SWAP1 PUSH2 0xA5B JUMP JUMPDEST PUSH2 0x415 JUMP JUMPDEST PUSH1 0x40 MLOAD PUSH2 0xDC SWAP3 SWAP2 SWAP1 PUSH2 0xAAA JUMP JUMPDEST PUSH1 0x40 MLOAD DUP1 SWAP2 SUB SWAP1 RETURN JUMPDEST PUSH2 0xFF PUSH1 0x4 DUP1 CALLDATASIZE SUB DUP2 ADD SWAP1 PUSH2 0xFA SWAP2 SWAP1 PUSH2 0x9D0 JUMP JUMPDEST PUSH2 0x446 JUMP JUMPDEST PUSH1 0x40 MLOAD PUSH2 0x10C SWAP2 SWAP1 PUSH2 0xAD3 JUMP JUMPDEST PUSH1 0x40 MLOAD DUP1 SWAP2 SUB SWAP1 RETURN JUMPDEST PUSH2 0x12F PUSH1 0x4 DUP1 CALLDATASIZE SUB DUP2 ADD SWAP1 PUSH2 0x12A SWAP2 SWAP1 PUSH2 0xAEE JUMP JUMPDEST PUSH2 0x463 JUMP JUMPDEST STOP JUMPDEST PUSH2 0x14B PUSH1 0x4 DUP1 CALLDATASIZE SUB DUP2 ADD SWAP1 PUSH2 0x146 SWAP2 SWAP1 PUSH2 0xA5B JUMP JUMPDEST PUSH2 0x51F JUMP JUMPDEST PUSH1 0x40 MLOAD PUSH2 0x158 SWAP2 SWAP1 PUSH2 0xAD3 JUMP JUMPDEST PUSH1 0x40 MLOAD DUP1 SWAP2 SUB SWAP1 RETURN JUMPDEST PUSH2 0x17B PUSH1 0x4 DUP1 CALLDATASIZE SUB DUP2 ADD SWAP1 PUSH2 0x176 SWAP2 SWAP1 PUSH2 0x9D0 JUMP JUMPDEST PUSH2 0x57D JUMP JUMPDEST PUSH1 0x40 MLOAD PUSH2 0x188 SWAP2 SWAP1 PUSH2 0xAD3 JUMP JUMPDEST PUSH1 0x40 MLOAD DUP1 SWAP2 SUB SWAP1 RETURN JUMPDEST PUSH2 0x199 PUSH2 0x595 JUMP JUMPDEST PUSH1 0x40 MLOAD PUSH2 0x1A6 SWAP2 SWAP1 PUSH2 0xBEC JUMP JUMPDEST PUSH1 0x40 MLOAD DUP1 SWAP2 SUB SWAP1 RETURN JUMPDEST PUSH2 0x1C9 PUSH1 0x4 DUP1 CALLDATASIZE SUB DUP2 ADD SWAP1 PUSH2 0x1C4 SWAP2 SWAP1 PUSH2 0x9D0 JUMP JUMPDEST PUSH2 0x68F JUMP JUMPDEST STOP JUMPDEST PUSH2 0x1E5 PUSH1 0x4 DUP1 CALLDATASIZE SUB DUP2 ADD SWAP1 PUSH2 0x1E0 SWAP2 SWAP1 PUSH2 0x9D0 JUMP JUMPDEST PUSH2 0x962 JUMP JUMPDEST PUSH1 0x40 MLOAD PUSH2 0x1F2 SWAP2 SWAP1 PUSH2 0xC1D JUMP JUMPDEST PUSH1 0x40 MLOAD DUP1 SWAP2 SUB SWAP1 RETURN JUMPDEST PUSH1 0x0 DUP1 SLOAD SWAP1 PUSH2 0x100 EXP SWAP1 DIV PUSH20 0xFFFFFFFFFFFFFFFFFFFFFFFFFFFFFFFFFFFFFFFF AND PUSH20 0xFFFFFFFFFFFFFFFFFFFFFFFFFFFFFFFFFFFFFFFF AND CALLER PUSH20 0xFFFFFFFFFFFFFFFFFFFFFFFFFFFFFFFFFFFFFFFF AND SUB PUSH2 0x289 JUMPI PUSH1 0x40 MLOAD PUSH32 0x8C379A000000000000000000000000000000000000000000000000000000000 DUP2 MSTORE PUSH1 0x4 ADD PUSH2 0x280 SWAP1 PUSH2 0xC95 JUMP JUMPDEST PUSH1 0x40 MLOAD DUP1 SWAP2 SUB SWAP1 REVERT JUMPDEST PUSH1 0x0 PUSH1 0x2 PUSH1 0x0 CALLER PUSH20 0xFFFFFFFFFFFFFFFFFFFFFFFFFFFFFFFFFFFFFFFF AND PUSH20 0xFFFFFFFFFFFFFFFFFFFFFFFFFFFFFFFFFFFFFFFF AND DUP2 MSTORE PUSH1 0x20 ADD SWAP1 DUP2 MSTORE PUSH1 0x20 ADD PUSH1 0x0 KECCAK256 PUSH1 0x0 DUP4 DUP2 MSTORE PUSH1 0x20 ADD SWAP1 DUP2 MSTORE PUSH1 0x20 ADD PUSH1 0x0 KECCAK256 PUSH1 0x0 ADD SLOAD GT PUSH2 0x31F JUMPI PUSH1 0x40 MLOAD PUSH32 0x8C379A000000000000000000000000000000000000000000000000000000000 DUP2 MSTORE PUSH1 0x4 ADD PUSH2 0x316 SWAP1 PUSH2 0xD01 JUMP JUMPDEST PUSH1 0x40 MLOAD DUP1 SWAP2 SUB SWAP1 REVERT JUMPDEST PUSH1 0x64 PUSH1 0x2 PUSH1 0x0 CALLER PUSH20 0xFFFFFFFFFFFFFFFFFFFFFFFFFFFFFFFFFFFFFFFF AND PUSH20 0xFFFFFFFFFFFFFFFFFFFFFFFFFFFFFFFFFFFFFFFF AND DUP2 MSTORE PUSH1 0x20 ADD SWAP1 DUP2 MSTORE PUSH1 0x20 ADD PUSH1 0x0 KECCAK256 PUSH1 0x0 DUP4 DUP2 MSTORE PUSH1 0x20 ADD SWAP1 DUP2 MSTORE PUSH1 0x20 ADD PUSH1 0x0 KECCAK256 PUSH1 0x1 ADD SLOAD NUMBER PUSH2 0x380 SWAP2 SWAP1 PUSH2 0xD50 JUMP JUMPDEST GT PUSH2 0x412 JUMPI PUSH1 0x2 PUSH1 0x0 CALLER PUSH20 0xFFFFFFFFFFFFFFFFFFFFFFFFFFFFFFFFFFFFFFFF AND PUSH20 0xFFFFFFFFFFFFFFFFFFFFFFFFFFFFFFFFFFFFFFFF AND DUP2 MSTORE PUSH1 0x20 ADD SWAP1 DUP2 MSTORE PUSH1 0x20 ADD PUSH1 0x0 KECCAK256 PUSH1 0x0 DUP3 DUP2 MSTORE PUSH1 0x20 ADD SWAP1 DUP2 MSTORE PUSH1 0x20 ADD PUSH1 0x0 KECCAK256 PUSH1 0x0 DUP1 DUP3 ADD PUSH1 0x0 SWAP1 SSTORE PUSH1 0x1 DUP3 ADD PUSH1 0x0 SWAP1 SSTORE POP POP PUSH1 0x1 PUSH1 0x0 DUP3 DUP2 MSTORE PUSH1 0x20 ADD SWAP1 DUP2 MSTORE PUSH1 0x20 ADD PUSH1 0x0 KECCAK256 PUSH1 0x0 DUP2 SLOAD DUP1 SWAP3 SWAP2 SWAP1 PUSH2 0x40C SWAP1 PUSH2 0xD84 JUMP JUMPDEST SWAP2 SWAP1 POP SSTORE POP JUMPDEST POP JUMP JUMPDEST PUSH1 0x2 PUSH1 0x20 MSTORE DUP2 PUSH1 0x0 MSTORE PUSH1 0x40 PUSH1 0x0 KECCAK256 PUSH1 0x20 MSTORE DUP1 PUSH1 0x0 MSTORE PUSH1 0x40 PUSH1 0x0 KECCAK256 PUSH1 0x0 SWAP2 POP SWAP2 POP POP DUP1 PUSH1 0x0 ADD SLOAD SWAP1 DUP1 PUSH1 0x1 ADD SLOAD SWAP1 POP DUP3 JUMP JUMPDEST PUSH1 0x0 PUSH1 0x1 PUSH1 0x0 DUP4 DUP2 MSTORE PUSH1 0x20 ADD SWAP1 DUP2 MSTORE PUSH1 0x20 ADD PUSH1 0x0 KECCAK256 SLOAD SWAP1 POP SWAP2 SWAP1 POP JUMP JUMPDEST PUSH1 0x0 DUP1 SLOAD SWAP1 PUSH2 0x100 EXP SWAP1 DIV PUSH20 0xFFFFFFFFFFFFFFFFFFFFFFFFFFFFFFFFFFFFFFFF AND PUSH20 0xFFFFFFFFFFFFFFFFFFFFFFFFFFFFFFFFFFFFFFFF AND CALLER PUSH20 0xFFFFFFFFFFFFFFFFFFFFFFFFFFFFFFFFFFFFFFFF AND EQ PUSH2 0x4F1 JUMPI PUSH1 0x40 MLOAD PUSH32 0x8C379A000000000000000000000000000000000000000000000000000000000 DUP2 MSTORE PUSH1 0x4 ADD PUSH2 0x4E8 SWAP1 PUSH2 0xE18 JUMP JUMPDEST PUSH1 0x40 MLOAD DUP1 SWAP2 SUB SWAP1 REVERT JUMPDEST DUP1 PUSH1 0x1 PUSH1 0x0 DUP5 DUP2 MSTORE PUSH1 0x20 ADD SWAP1 DUP2 MSTORE PUSH1 0x20 ADD PUSH1 0x0 KECCAK256 PUSH1 0x0 DUP3 DUP3 SLOAD PUSH2 0x514 SWAP2 SWAP1 PUSH2 0xE38 JUMP JUMPDEST SWAP3 POP POP DUP2 SWAP1 SSTORE POP POP POP JUMP JUMPDEST PUSH1 0x0 PUSH1 0x2 PUSH1 0x0 DUP5 PUSH20 0xFFFFFFFFFFFFFFFFFFFFFFFFFFFFFFFFFFFFFFFF AND PUSH20 0xFFFFFFFFFFFFFFFFFFFFFFFFFFFFFFFFFFFFFFFF AND DUP2 MSTORE PUSH1 0x20 ADD SWAP1 DUP2 MSTORE PUSH1 0x20 ADD PUSH1 0x0 KECCAK256 PUSH1 0x0 DUP4 DUP2 MSTORE PUSH1 0x20 ADD SWAP1 DUP2 MSTORE PUSH1 0x20 ADD PUSH1 0x0 KECCAK256 PUSH1 0x0 ADD SLOAD SWAP1 POP SWAP3 SWAP2 POP POP JUMP JUMPDEST PUSH1 0x1 PUSH1 0x20 MSTORE DUP1 PUSH1 0x0 MSTORE PUSH1 0x40 PUSH1 0x0 KECCAK256 PUSH1 0x0 SWAP2 POP SWAP1 POP SLOAD DUP2 JUMP JUMPDEST PUSH1 0x60 PUSH1 0x0 PUSH1 0x4 SLOAD PUSH8 0xFFFFFFFFFFFFFFFF DUP2 GT ISZERO PUSH2 0x5B5 JUMPI PUSH2 0x5B4 PUSH2 0xE8E JUMP JUMPDEST JUMPDEST PUSH1 0x40 MLOAD SWAP1 DUP1 DUP3 MSTORE DUP1 PUSH1 0x20 MUL PUSH1 0x20 ADD DUP3 ADD PUSH1 0x40 MSTORE DUP1 ISZERO PUSH2 0x5E3 JUMPI DUP2 PUSH1 0x20 ADD PUSH1 0x20 DUP3 MUL DUP1 CALLDATASIZE DUP4 CALLDATACOPY DUP1 DUP3 ADD SWAP2 POP POP SWAP1 POP JUMPDEST POP SWAP1 POP PUSH1 0x0 JUMPDEST PUSH1 0x4 SLOAD DUP2 LT ISZERO PUSH2 0x687 JUMPI PUSH1 0x3 PUSH1 0x0 DUP3 DUP2 MSTORE PUSH1 0x20 ADD SWAP1 DUP2 MSTORE PUSH1 0x20 ADD PUSH1 0x0 KECCAK256 PUSH1 0x0 SWAP1 SLOAD SWAP1 PUSH2 0x100 EXP SWAP1 DIV PUSH20 0xFFFFFFFFFFFFFFFFFFFFFFFFFFFFFFFFFFFFFFFF AND DUP3 DUP3 DUP2 MLOAD DUP2 LT PUSH2 0x63A JUMPI PUSH2 0x639 PUSH2 0xEBD JUMP JUMPDEST JUMPDEST PUSH1 0x20 MUL PUSH1 0x20 ADD ADD SWAP1 PUSH20 0xFFFFFFFFFFFFFFFFFFFFFFFFFFFFFFFFFFFFFFFF AND SWAP1 DUP2 PUSH20 0xFFFFFFFFFFFFFFFFFFFFFFFFFFFFFFFFFFFFFFFF AND DUP2 MSTORE POP POP DUP1 DUP1 PUSH2 0x67F SWAP1 PUSH2 0xD84 JUMP JUMPDEST SWAP2 POP POP PUSH2 0x5E9 JUMP JUMPDEST POP DUP1 SWAP2 POP POP SWAP1 JUMP JUMPDEST PUSH1 0x0 DUP1 SLOAD SWAP1 PUSH2 0x100 EXP SWAP1 DIV PUSH20 0xFFFFFFFFFFFFFFFFFFFFFFFFFFFFFFFFFFFFFFFF AND PUSH20 0xFFFFFFFFFFFFFFFFFFFFFFFFFFFFFFFFFFFFFFFF AND CALLER PUSH20 0xFFFFFFFFFFFFFFFFFFFFFFFFFFFFFFFFFFFFFFFF AND SUB PUSH2 0x71D JUMPI PUSH1 0x40 MLOAD PUSH32 0x8C379A000000000000000000000000000000000000000000000000000000000 DUP2 MSTORE PUSH1 0x4 ADD PUSH2 0x714 SWAP1 PUSH2 0xC95 JUMP JUMPDEST PUSH1 0x40 MLOAD DUP1 SWAP2 SUB SWAP1 REVERT JUMPDEST PUSH1 0x0 PUSH1 0x2 PUSH1 0x0 CALLER PUSH20 0xFFFFFFFFFFFFFFFFFFFFFFFFFFFFFFFFFFFFFFFF AND PUSH20 0xFFFFFFFFFFFFFFFFFFFFFFFFFFFFFFFFFFFFFFFF AND DUP2 MSTORE PUSH1 0x20 ADD SWAP1 DUP2 MSTORE PUSH1 0x20 ADD PUSH1 0x0 KECCAK256 PUSH1 0x0 DUP4 DUP2 MSTORE PUSH1 0x20 ADD SWAP1 DUP2 MSTORE PUSH1 0x20 ADD PUSH1 0x0 KECCAK256 PUSH1 0x0 ADD SLOAD EQ PUSH2 0x7B3 JUMPI PUSH1 0x40 MLOAD PUSH32 0x8C379A000000000000000000000000000000000000000000000000000000000 DUP2 MSTORE PUSH1 0x4 ADD PUSH2 0x7AA SWAP1 PUSH2 0xF38 JUMP JUMPDEST PUSH1 0x40 MLOAD DUP1 SWAP2 SUB SWAP1 REVERT JUMPDEST PUSH1 0x0 PUSH1 0x1 PUSH1 0x0 DUP4 DUP2 MSTORE PUSH1 0x20 ADD SWAP1 DUP2 MSTORE PUSH1 0x20 ADD PUSH1 0x0 KECCAK256 SLOAD GT PUSH2 0x809 JUMPI PUSH1 0x40 MLOAD PUSH32 0x8C379A000000000000000000000000000000000000000000000000000000000 DUP2 MSTORE PUSH1 0x4 ADD PUSH2 0x800 SWAP1 PUSH2 0xFA4 JUMP JUMPDEST PUSH1 0x40 MLOAD DUP1 SWAP2 SUB SWAP1 REVERT JUMPDEST PUSH1 0x2 PUSH1 0x0 CALLER PUSH20 0xFFFFFFFFFFFFFFFFFFFFFFFFFFFFFFFFFFFFFFFF AND PUSH20 0xFFFFFFFFFFFFFFFFFFFFFFFFFFFFFFFFFFFFFFFF AND DUP2 MSTORE PUSH1 0x20 ADD SWAP1 DUP2 MSTORE PUSH1 0x20 ADD PUSH1 0x0 KECCAK256 PUSH1 0x0 DUP3 DUP2 MSTORE PUSH1 0x20 ADD SWAP1 DUP2 MSTORE PUSH1 0x20 ADD PUSH1 0x0 KECCAK256 PUSH1 0x0 ADD PUSH1 0x0 DUP2 SLOAD DUP1 SWAP3 SWAP2 SWAP1 PUSH2 0x86D SWAP1 PUSH2 0xD84 JUMP JUMPDEST SWAP2 SWAP1 POP SSTORE POP NUMBER PUSH1 0x2 PUSH1 0x0 CALLER PUSH20 0xFFFFFFFFFFFFFFFFFFFFFFFFFFFFFFFFFFFFFFFF AND PUSH20 0xFFFFFFFFFFFFFFFFFFFFFFFFFFFFFFFFFFFFFFFF AND DUP2 MSTORE PUSH1 0x20 ADD SWAP1 DUP2 MSTORE PUSH1 0x20 ADD PUSH1 0x0 KECCAK256 PUSH1 0x0 DUP4 DUP2 MSTORE PUSH1 0x20 ADD SWAP1 DUP2 MSTORE PUSH1 0x20 ADD PUSH1 0x0 KECCAK256 PUSH1 0x1 ADD DUP2 SWAP1 SSTORE POP PUSH1 0x1 PUSH1 0x0 DUP3 DUP2 MSTORE PUSH1 0x20 ADD SWAP1 DUP2 MSTORE PUSH1 0x20 ADD PUSH1 0x0 KECCAK256 PUSH1 0x0 DUP2 SLOAD DUP1 SWAP3 SWAP2 SWAP1 PUSH2 0x8EE SWAP1 PUSH2 0xFC4 JUMP JUMPDEST SWAP2 SWAP1 POP SSTORE POP CALLER PUSH1 0x3 PUSH1 0x0 PUSH1 0x4 SLOAD DUP2 MSTORE PUSH1 0x20 ADD SWAP1 DUP2 MSTORE PUSH1 0x20 ADD PUSH1 0x0 KECCAK256 PUSH1 0x0 PUSH2 0x100 EXP DUP2 SLOAD DUP2 PUSH20 0xFFFFFFFFFFFFFFFFFFFFFFFFFFFFFFFFFFFFFFFF MUL NOT AND SWAP1 DUP4 PUSH20 0xFFFFFFFFFFFFFFFFFFFFFFFFFFFFFFFFFFFFFFFF AND MUL OR SWAP1 SSTORE POP PUSH1 0x4 PUSH1 0x0 DUP2 SLOAD DUP1 SWAP3 SWAP2 SWAP1 PUSH2 0x95A SWAP1 PUSH2 0xD84 JUMP JUMPDEST SWAP2 SWAP1 POP SSTORE POP POP JUMP JUMPDEST PUSH1 0x3 PUSH1 0x20 MSTORE DUP1 PUSH1 0x0 MSTORE PUSH1 0x40 PUSH1 0x0 KECCAK256 PUSH1 0x0 SWAP2 POP SLOAD SWAP1 PUSH2 0x100 EXP SWAP1 DIV PUSH20 0xFFFFFFFFFFFFFFFFFFFFFFFFFFFFFFFFFFFFFFFF AND DUP2 JUMP JUMPDEST PUSH1 0x0 DUP1 REVERT JUMPDEST PUSH1 0x0 DUP2 SWAP1 POP SWAP2 SWAP1 POP JUMP JUMPDEST PUSH2 0x9AD DUP2 PUSH2 0x99A JUMP JUMPDEST DUP2 EQ PUSH2 0x9B8 JUMPI PUSH1 0x0 DUP1 REVERT JUMPDEST POP JUMP JUMPDEST PUSH1 0x0 DUP2 CALLDATALOAD SWAP1 POP PUSH2 0x9CA DUP2 PUSH2 0x9A4 JUMP JUMPDEST SWAP3 SWAP2 POP POP JUMP JUMPDEST PUSH1 0x0 PUSH1 0x20 DUP3 DUP5 SUB SLT ISZERO PUSH2 0x9E6 JUMPI PUSH2 0x9E5 PUSH2 0x995 JUMP JUMPDEST JUMPDEST PUSH1 0x0 PUSH2 0x9F4 DUP5 DUP3 DUP6 ADD PUSH2 0x9BB JUMP JUMPDEST SWAP2 POP POP SWAP3 SWAP2 POP POP JUMP JUMPDEST PUSH1 0x0 PUSH20 0xFFFFFFFFFFFFFFFFFFFFFFFFFFFFFFFFFFFFFFFF DUP3 AND SWAP1 POP SWAP2 SWAP1 POP JUMP JUMPDEST PUSH1 0x0 PUSH2 0xA28 DUP3 PUSH2 0x9FD JUMP JUMPDEST SWAP1 POP SWAP2 SWAP1 POP JUMP JUMPDEST PUSH2 0xA38 DUP2 PUSH2 0xA1D JUMP JUMPDEST DUP2 EQ PUSH2 0xA43 JUMPI PUSH1 0x0 DUP1 REVERT JUMPDEST POP JUMP JUMPDEST PUSH1 0x0 DUP2 CALLDATALOAD SWAP1 POP PUSH2 0xA55 DUP2 PUSH2 0xA2F JUMP JUMPDEST SWAP3 SWAP2 POP POP JUMP JUMPDEST PUSH1 0x0 DUP1 PUSH1 0x40 DUP4 DUP6 SUB SLT ISZERO PUSH2 0xA72 JUMPI PUSH2 0xA71 PUSH2 0x995 JUMP JUMPDEST JUMPDEST PUSH1 0x0 PUSH2 0xA80 DUP6 DUP3 DUP7 ADD PUSH2 0xA46 JUMP JUMPDEST SWAP3 POP POP PUSH1 0x20 PUSH2 0xA91 DUP6 DUP3 DUP7 ADD PUSH2 0x9BB JUMP JUMPDEST SWAP2 POP POP SWAP3 POP SWAP3 SWAP1 POP JUMP JUMPDEST PUSH2 0xAA4 DUP2 PUSH2 0x99A JUMP JUMPDEST DUP3 MSTORE POP POP JUMP JUMPDEST PUSH1 0x0 PUSH1 0x40 DUP3 ADD SWAP1 POP PUSH2 0xABF PUSH1 0x0 DUP4 ADD DUP6 PUSH2 0xA9B JUMP JUMPDEST PUSH2 0xACC PUSH1 0x20 DUP4 ADD DUP5 PUSH2 0xA9B JUMP JUMPDEST SWAP4 SWAP3 POP POP POP JUMP JUMPDEST PUSH1 0x0 PUSH1 0x20 DUP3 ADD SWAP1 POP PUSH2 0xAE8 PUSH1 0x0 DUP4 ADD DUP5 PUSH2 0xA9B JUMP JUMPDEST SWAP3 SWAP2 POP POP JUMP JUMPDEST PUSH1 0x0 DUP1 PUSH1 0x40 DUP4 DUP6 SUB SLT ISZERO PUSH2 0xB05 JUMPI PUSH2 0xB04 PUSH2 0x995 JUMP JUMPDEST JUMPDEST PUSH1 0x0 PUSH2 0xB13 DUP6 DUP3 DUP7 ADD PUSH2 0x9BB JUMP JUMPDEST SWAP3 POP POP PUSH1 0x20 PUSH2 0xB24 DUP6 DUP3 DUP7 ADD PUSH2 0x9BB JUMP JUMPDEST SWAP2 POP POP SWAP3 POP SWAP3 SWAP1 POP JUMP JUMPDEST PUSH1 0x0 DUP2 MLOAD SWAP1 POP SWAP2 SWAP1 POP JUMP JUMPDEST PUSH1 0x0 DUP3 DUP3 MSTORE PUSH1 0x20 DUP3 ADD SWAP1 POP SWAP3 SWAP2 POP POP JUMP JUMPDEST PUSH1 0x0 DUP2 SWAP1 POP PUSH1 0x20 DUP3 ADD SWAP1 POP SWAP2 SWAP1 POP JUMP JUMPDEST PUSH2 0xB63 DUP2 PUSH2 0xA1D JUMP JUMPDEST DUP3 MSTORE POP POP JUMP JUMPDEST PUSH1 0x0 PUSH2 0xB75 DUP4 DUP4 PUSH2 0xB5A JUMP JUMPDEST PUSH1 0x20 DUP4 ADD SWAP1 POP SWAP3 SWAP2 POP POP JUMP JUMPDEST PUSH1 0x0 PUSH1 0x20 DUP3 ADD SWAP1 POP SWAP2 SWAP1 POP JUMP JUMPDEST PUSH1 0x0 PUSH2 0xB99 DUP3 PUSH2 0xB2E JUMP JUMPDEST PUSH2 0xBA3 DUP2 DUP6 PUSH2 0xB39 JUMP JUMPDEST SWAP4 POP PUSH2 0xBAE DUP4 PUSH2 0xB4A JUMP JUMPDEST DUP1 PUSH1 0x0 JUMPDEST DUP4 DUP2 LT ISZERO PUSH2 0xBDF JUMPI DUP2 MLOAD PUSH2 0xBC6 DUP9 DUP3 PUSH2 0xB69 JUMP JUMPDEST SWAP8 POP PUSH2 0xBD1 DUP4 PUSH2 0xB81 JUMP JUMPDEST SWAP3 POP POP PUSH1 0x1 DUP2 ADD SWAP1 POP PUSH2 0xBB2 JUMP JUMPDEST POP DUP6 SWAP4 POP POP POP POP SWAP3 SWAP2 POP POP JUMP JUMPDEST PUSH1 0x0 PUSH1 0x20 DUP3 ADD SWAP1 POP DUP2 DUP2 SUB PUSH1 0x0 DUP4 ADD MSTORE PUSH2 0xC06 DUP2 DUP5 PUSH2 0xB8E JUMP JUMPDEST SWAP1 POP SWAP3 SWAP2 POP POP JUMP JUMPDEST PUSH2 0xC17 DUP2 PUSH2 0xA1D JUMP JUMPDEST DUP3 MSTORE POP POP JUMP JUMPDEST PUSH1 0x0 PUSH1 0x20 DUP3 ADD SWAP1 POP PUSH2 0xC32 PUSH1 0x0 DUP4 ADD DUP5 PUSH2 0xC0E JUMP JUMPDEST SWAP3 SWAP2 POP POP JUMP JUMPDEST PUSH1 0x0 DUP3 DUP3 MSTORE PUSH1 0x20 DUP3 ADD SWAP1 POP SWAP3 SWAP2 POP POP JUMP JUMPDEST PUSH32 0x4E6F7420636C69656E7400000000000000000000000000000000000000000000 PUSH1 0x0 DUP3 ADD MSTORE POP JUMP JUMPDEST PUSH1 0x0 PUSH2 0xC7F PUSH1 0xA DUP4 PUSH2 0xC38 JUMP JUMPDEST SWAP2 POP PUSH2 0xC8A DUP3 PUSH2 0xC49 JUMP JUMPDEST PUSH1 0x20 DUP3 ADD SWAP1 POP SWAP2 SWAP1 POP JUMP JUMPDEST PUSH1 0x0 PUSH1 0x20 DUP3 ADD SWAP1 POP DUP2 DUP2 SUB PUSH1 0x0 DUP4 ADD MSTORE PUSH2 0xCAE DUP2 PUSH2 0xC72 JUMP JUMPDEST SWAP1 POP SWAP2 SWAP1 POP JUMP JUMPDEST PUSH32 0x4E6F206974656D7320746F2072657475726E0000000000000000000000000000 PUSH1 0x0 DUP3 ADD MSTORE POP JUMP JUMPDEST PUSH1 0x0 PUSH2 0xCEB PUSH1 0x12 DUP4 PUSH2 0xC38 JUMP JUMPDEST SWAP2 POP PUSH2 0xCF6 DUP3 PUSH2 0xCB5 JUMP JUMPDEST PUSH1 0x20 DUP3 ADD SWAP1 POP SWAP2 SWAP1 POP JUMP JUMPDEST PUSH1 0x0 PUSH1 0x20 DUP3 ADD SWAP1 POP DUP2 DUP2 SUB PUSH1 0x0 DUP4 ADD MSTORE PUSH2 0xD1A DUP2 PUSH2 0xCDE JUMP JUMPDEST SWAP1 POP SWAP2 SWAP1 POP JUMP JUMPDEST PUSH32 0x4E487B7100000000000000000000000000000000000000000000000000000000 PUSH1 0x0 MSTORE PUSH1 0x11 PUSH1 0x4 MSTORE PUSH1 0x24 PUSH1 0x0 REVERT JUMPDEST PUSH1 0x0 PUSH2 0xD5B DUP3 PUSH2 0x99A JUMP JUMPDEST SWAP2 POP PUSH2 0xD66 DUP4 PUSH2 0x99A JUMP JUMPDEST SWAP3 POP DUP3 DUP3 LT ISZERO PUSH2 0xD79 JUMPI PUSH2 0xD78 PUSH2 0xD21 JUMP JUMPDEST JUMPDEST DUP3 DUP3 SUB SWAP1 POP SWAP3 SWAP2 POP POP JUMP JUMPDEST PUSH1 0x0 PUSH2 0xD8F DUP3 PUSH2 0x99A JUMP JUMPDEST SWAP2 POP PUSH32 0xFFFFFFFFFFFFFFFFFFFFFFFFFFFFFFFFFFFFFFFFFFFFFFFFFFFFFFFFFFFFFFFF DUP3 SUB PUSH2 0xDC1 JUMPI PUSH2 0xDC0 PUSH2 0xD21 JUMP JUMPDEST JUMPDEST PUSH1 0x1 DUP3 ADD SWAP1 POP SWAP2 SWAP1 POP JUMP JUMPDEST PUSH32 0x4E6F74206F776E65720000000000000000000000000000000000000000000000 PUSH1 0x0 DUP3 ADD MSTORE POP JUMP JUMPDEST PUSH1 0x0 PUSH2 0xE02 PUSH1 0x9 DUP4 PUSH2 0xC38 JUMP JUMPDEST SWAP2 POP PUSH2 0xE0D DUP3 PUSH2 0xDCC JUMP JUMPDEST PUSH1 0x20 DUP3 ADD SWAP1 POP SWAP2 SWAP1 POP JUMP JUMPDEST PUSH1 0x0 PUSH1 0x20 DUP3 ADD SWAP1 POP DUP2 DUP2 SUB PUSH1 0x0 DUP4 ADD MSTORE PUSH2 0xE31 DUP2 PUSH2 0xDF5 JUMP JUMPDEST SWAP1 POP SWAP2 SWAP1 POP JUMP JUMPDEST PUSH1 0x0 PUSH2 0xE43 DUP3 PUSH2 0x99A JUMP JUMPDEST SWAP2 POP PUSH2 0xE4E DUP4 PUSH2 0x99A JUMP JUMPDEST SWAP3 POP DUP3 PUSH32 0xFFFFFFFFFFFFFFFFFFFFFFFFFFFFFFFFFFFFFFFFFFFFFFFFFFFFFFFFFFFFFFFF SUB DUP3 GT ISZERO PUSH2 0xE83 JUMPI PUSH2 0xE82 PUSH2 0xD21 JUMP JUMPDEST JUMPDEST DUP3 DUP3 ADD SWAP1 POP SWAP3 SWAP2 POP POP JUMP JUMPDEST PUSH32 0x4E487B7100000000000000000000000000000000000000000000000000000000 PUSH1 0x0 MSTORE PUSH1 0x41 PUSH1 0x4 MSTORE PUSH1 0x24 PUSH1 0x0 REVERT JUMPDEST PUSH32 0x4E487B7100000000000000000000000000000000000000000000000000000000 PUSH1 0x0 MSTORE PUSH1 0x32 PUSH1 0x4 MSTORE PUSH1 0x24 PUSH1 0x0 REVERT JUMPDEST PUSH32 0x436C69656E7420616C72656164792068617320746869732070726F6475637400 PUSH1 0x0 DUP3 ADD MSTORE POP JUMP JUMPDEST PUSH1 0x0 PUSH2 0xF22 PUSH1 0x1F DUP4 PUSH2 0xC38 JUMP JUMPDEST SWAP2 POP PUSH2 0xF2D DUP3 PUSH2 0xEEC JUMP JUMPDEST PUSH1 0x20 DUP3 ADD SWAP1 POP SWAP2 SWAP1 POP JUMP JUMPDEST PUSH1 0x0 PUSH1 0x20 DUP3 ADD SWAP1 POP DUP2 DUP2 SUB PUSH1 0x0 DUP4 ADD MSTORE PUSH2 0xF51 DUP2 PUSH2 0xF15 JUMP JUMPDEST SWAP1 POP SWAP2 SWAP1 POP JUMP JUMPDEST PUSH32 0x4E6F206974656D7320746F2073656C6C00000000000000000000000000000000 PUSH1 0x0 DUP3 ADD MSTORE POP JUMP JUMPDEST PUSH1 0x0 PUSH2 0xF8E PUSH1 0x10 DUP4 PUSH2 0xC38 JUMP JUMPDEST SWAP2 POP PUSH2 0xF99 DUP3 PUSH2 0xF58 JUMP JUMPDEST PUSH1 0x20 DUP3 ADD SWAP1 POP SWAP2 SWAP1 POP JUMP JUMPDEST PUSH1 0x0 PUSH1 0x20 DUP3 ADD SWAP1 POP DUP2 DUP2 SUB PUSH1 0x0 DUP4 ADD MSTORE PUSH2 0xFBD DUP2 PUSH2 0xF81 JUMP JUMPDEST SWAP1 POP SWAP2 SWAP1 POP JUMP JUMPDEST PUSH1 0x0 PUSH2 0xFCF DUP3 PUSH2 0x99A JUMP JUMPDEST SWAP2 POP PUSH1 0x0 DUP3 SUB PUSH2 0xFE2 JUMPI PUSH2 0xFE1 PUSH2 0xD21 JUMP JUMPDEST JUMPDEST PUSH1 0x1 DUP3 SUB SWAP1 POP SWAP2 SWAP1 POP JUMP INVALID LOG2 PUSH5 0x6970667358 0x22 SLT KECCAK256 NUMBER PUSH19 0xD51201D9445C769145B558C8316AF890C362F3 COINBASE 0xE2 0xDA 0x5C 0xEA 0xCF REVERT 0xE4 PUSH26 0xD0C264736F6C634300080F003300000000000000000000000000 "
				},
				"gasEstimates": {
					"creation": {
						"codeDepositCost": "826200",
						"executionCost": "30136",
						"totalCost": "856336"
					},
					"external": {
						"addItem(uint256,uint256)": "infinite",
						"buyItem(uint256)": "infinite",
						"clientPurchases(address,uint256)": "infinite",
						"clients(uint256)": "2927",
						"items(uint256)": "infinite",
						"listClientItems(address,uint256)": "infinite",
						"listClients()": "infinite",
						"listItems(uint256)": "infinite",
						"returnItem(uint256)": "infinite"
					}
				},
				"methodIdentifiers": {
					"addItem(uint256,uint256)": "a2125232",
					"buyItem(uint256)": "e7fb74c7",
					"clientPurchases(address,uint256)": "2ad2ba7c",
					"clients(uint256)": "f88af21d",
					"items(uint256)": "bfb231d2",
					"listClientItems(address,uint256)": "a4ddcd3f",
					"listClients()": "e20ee269",
					"listItems(uint256)": "3e909fc5",
					"returnItem(uint256)": "223ed1dd"
				}
			},
			"storageLayout": {
				"storage": [
					{
						"astId": 3,
						"contract": "TechnoLime_Store.sol:Shop",
						"label": "owner",
						"offset": 0,
						"slot": "0",
						"type": "t_address"
					},
					{
						"astId": 12,
						"contract": "TechnoLime_Store.sol:Shop",
						"label": "items",
						"offset": 0,
						"slot": "1",
						"type": "t_mapping(t_uint256,t_uint256)"
					},
					{
						"astId": 19,
						"contract": "TechnoLime_Store.sol:Shop",
						"label": "clientPurchases",
						"offset": 0,
						"slot": "2",
						"type": "t_mapping(t_address,t_mapping(t_uint256,t_struct(SoldItem)8_storage))"
					},
					{
						"astId": 23,
						"contract": "TechnoLime_Store.sol:Shop",
						"label": "clients",
						"offset": 0,
						"slot": "3",
						"type": "t_mapping(t_uint256,t_address)"
					},
					{
						"astId": 26,
						"contract": "TechnoLime_Store.sol:Shop",
						"label": "totalClients",
						"offset": 0,
						"slot": "4",
						"type": "t_uint256"
					}
				],
				"types": {
					"t_address": {
						"encoding": "inplace",
						"label": "address",
						"numberOfBytes": "20"
					},
					"t_mapping(t_address,t_mapping(t_uint256,t_struct(SoldItem)8_storage))": {
						"encoding": "mapping",
						"key": "t_address",
						"label": "mapping(address => mapping(uint256 => struct Shop.SoldItem))",
						"numberOfBytes": "32",
						"value": "t_mapping(t_uint256,t_struct(SoldItem)8_storage)"
					},
					"t_mapping(t_uint256,t_address)": {
						"encoding": "mapping",
						"key": "t_uint256",
						"label": "mapping(uint256 => address)",
						"numberOfBytes": "32",
						"value": "t_address"
					},
					"t_mapping(t_uint256,t_struct(SoldItem)8_storage)": {
						"encoding": "mapping",
						"key": "t_uint256",
						"label": "mapping(uint256 => struct Shop.SoldItem)",
						"numberOfBytes": "32",
						"value": "t_struct(SoldItem)8_storage"
					},
					"t_mapping(t_uint256,t_uint256)": {
						"encoding": "mapping",
						"key": "t_uint256",
						"label": "mapping(uint256 => uint256)",
						"numberOfBytes": "32",
						"value": "t_uint256"
					},
					"t_struct(SoldItem)8_storage": {
						"encoding": "inplace",
						"label": "struct Shop.SoldItem",
						"members": [
							{
								"astId": 5,
								"contract": "TechnoLime_Store.sol:Shop",
								"label": "quantity",
								"offset": 0,
								"slot": "0",
								"type": "t_uint256"
							},
							{
								"astId": 7,
								"contract": "TechnoLime_Store.sol:Shop",
								"label": "blocktime",
								"offset": 0,
								"slot": "1",
								"type": "t_uint256"
							}
						],
						"numberOfBytes": "64"
					},
					"t_uint256": {
						"encoding": "inplace",
						"label": "uint256",
						"numberOfBytes": "32"
					}
				}
			},
			"userdoc": {
				"kind": "user",
				"methods": {},
				"version": 1
			}
		}
	}
}